{
  "contractName": "Rides",
  "abi": [
    {
      "anonymous": false,
      "inputs": [
        {
          "indexed": true,
          "internalType": "address",
          "name": "_driverAddress",
          "type": "address"
        },
        {
          "indexed": true,
          "internalType": "address",
          "name": "_riderAddress",
          "type": "address"
        },
        {
          "indexed": false,
          "internalType": "uint256",
          "name": "_totalPayed",
          "type": "uint256"
        }
      ],
      "name": "Selected",
      "type": "event"
    },
    {
      "anonymous": false,
      "inputs": [
        {
          "indexed": true,
          "internalType": "address",
          "name": "canditateAddress",
          "type": "address"
        },
        {
          "indexed": false,
          "internalType": "address",
          "name": "driver",
          "type": "address"
        },
        {
          "indexed": false,
          "internalType": "string",
          "name": "rider",
          "type": "string"
        }
      ],
      "name": "rideCreated",
      "type": "event"
    },
    {
      "inputs": [
        {
          "internalType": "address payable",
          "name": "_receiver",
          "type": "address"
        },
        {
          "internalType": "address",
          "name": "rideId",
          "type": "address"
        },
        {
          "internalType": "string",
          "name": "rider",
          "type": "string"
        }
      ],
      "name": "payRide",
      "outputs": [],
      "stateMutability": "payable",
      "type": "function",
      "payable": true
    },
    {
      "inputs": [
        {
          "internalType": "uint256",
          "name": "cost",
          "type": "uint256"
        },
        {
          "internalType": "uint256",
          "name": "timeActive",
          "type": "uint256"
        },
        {
          "internalType": "string",
          "name": "date",
          "type": "string"
        },
        {
          "internalType": "string",
          "name": "hour",
          "type": "string"
        },
        {
          "internalType": "string",
          "name": "rider",
          "type": "string"
        },
        {
          "internalType": "string",
          "name": "destination",
          "type": "string"
        }
      ],
      "name": "registerRide",
      "outputs": [],
      "stateMutability": "nonpayable",
      "type": "function"
    },
    {
      "inputs": [],
      "name": "fetchRides",
      "outputs": [
        {
          "components": [
            {
              "internalType": "uint256",
              "name": "cost",
              "type": "uint256"
            },
            {
              "internalType": "uint256",
              "name": "timeActive",
              "type": "uint256"
            },
            {
              "internalType": "string",
              "name": "date",
              "type": "string"
            },
            {
              "internalType": "string",
              "name": "hour",
              "type": "string"
            },
            {
              "internalType": "address",
              "name": "driver",
              "type": "address"
            },
            {
              "internalType": "string",
              "name": "rider",
              "type": "string"
            },
            {
              "internalType": "string",
              "name": "destination",
              "type": "string"
            },
            {
              "internalType": "address[]",
              "name": "bids",
              "type": "address[]"
            },
            {
              "internalType": "string",
              "name": "status",
              "type": "string"
            }
          ],
          "internalType": "struct Rides.Ride[]",
          "name": "",
          "type": "tuple[]"
        }
      ],
      "stateMutability": "view",
      "type": "function",
      "constant": true
    }
  ],
  "bytecode": "0x608060405234801561001057600080fd5b506116d8806100206000396000f3fe6080604052600436106100345760003560e01c806335549cca14610039578063718acd501461006457806393fb6d8b1461008d575b600080fd5b34801561004557600080fd5b5061004e6100a9565b60405161005b9190611148565b60405180910390f35b34801561007057600080fd5b5061008b60048036038101906100869190611205565b6105bd565b005b6100a760048036038101906100a2919061137f565b610a35565b005b606060006100b76002610bc3565b905060008167ffffffffffffffff8111156100d5576100d46113f3565b5b60405190808252806020026020018201604052801561010e57816020015b6100fb610be7565b8152602001906001900390816100f35790505b50905060005b828110156105b457600060018261012b9190611451565b905060008060006001600085815260200190815260200160002060009054906101000a900473ffffffffffffffffffffffffffffffffffffffff1673ffffffffffffffffffffffffffffffffffffffff1673ffffffffffffffffffffffffffffffffffffffff1681526020019081526020016000206040518061012001604052908160008201548152602001600182015481526020016002820180546101d0906114d6565b80601f01602080910402602001604051908101604052809291908181526020018280546101fc906114d6565b80156102495780601f1061021e57610100808354040283529160200191610249565b820191906000526020600020905b81548152906001019060200180831161022c57829003601f168201915b50505050508152602001600382018054610262906114d6565b80601f016020809104026020016040519081016040528092919081815260200182805461028e906114d6565b80156102db5780601f106102b0576101008083540402835291602001916102db565b820191906000526020600020905b8154815290600101906020018083116102be57829003601f168201915b505050505081526020016004820160009054906101000a900473ffffffffffffffffffffffffffffffffffffffff1673ffffffffffffffffffffffffffffffffffffffff1673ffffffffffffffffffffffffffffffffffffffff16815260200160058201805461034a906114d6565b80601f0160208091040260200160405190810160405280929190818152602001828054610376906114d6565b80156103c35780601f10610398576101008083540402835291602001916103c3565b820191906000526020600020905b8154815290600101906020018083116103a657829003601f168201915b505050505081526020016006820180546103dc906114d6565b80601f0160208091040260200160405190810160405280929190818152602001828054610408906114d6565b80156104555780601f1061042a57610100808354040283529160200191610455565b820191906000526020600020905b81548152906001019060200180831161043857829003601f168201915b50505050508152602001600782018054806020026020016040519081016040528092919081815260200182805480156104e357602002820191906000526020600020905b8160009054906101000a900473ffffffffffffffffffffffffffffffffffffffff1673ffffffffffffffffffffffffffffffffffffffff1681526020019060010190808311610499575b505050505081526020016008820180546104fc906114d6565b80601f0160208091040260200160405190810160405280929190818152602001828054610528906114d6565b80156105755780601f1061054a57610100808354040283529160200191610575565b820191906000526020600020905b81548152906001019060200180831161055857829003601f168201915b50505050508152505090508084848151811061059457610593611507565b5b6020026020010181905250505080806105ac90611536565b915050610114565b50809250505090565b600073ffffffffffffffffffffffffffffffffffffffff163373ffffffffffffffffffffffffffffffffffffffff160361062c576040517f08c379a0000000000000000000000000000000000000000000000000000000008152600401610623906115db565b60405180910390fd5b6106366002610bd1565b60006106426002610bc3565b9050600033905060008067ffffffffffffffff811115610665576106646113f3565b5b6040519080825280602002602001820160405280156106935781602001602082028036833780820191505090505b50905060006040518061012001604052808f81526020018e81526020018d8d8080601f016020809104026020016040519081016040528093929190818152602001838380828437600081840152601f19601f8201169050808301925050505050505081526020018b8b8080601f016020809104026020016040519081016040528093929190818152602001838380828437600081840152601f19601f8201169050808301925050505050505081526020013373ffffffffffffffffffffffffffffffffffffffff16815260200189898080601f016020809104026020016040519081016040528093929190818152602001838380828437600081840152601f19601f82011690508083019250505050505050815260200187878080601f016020809104026020016040519081016040528093929190818152602001838380828437600081840152601f19601f8201169050808301925050505050505081526020018381526020016040518060400160405280600481526020017f6f70656e000000000000000000000000000000000000000000000000000000008152508152509050806000808573ffffffffffffffffffffffffffffffffffffffff1673ffffffffffffffffffffffffffffffffffffffff168152602001908152602001600020600082015181600001556020820151816001015560408201518160020190805190602001906108a4929190610c49565b5060608201518160030190805190602001906108c1929190610c49565b5060808201518160040160006101000a81548173ffffffffffffffffffffffffffffffffffffffff021916908373ffffffffffffffffffffffffffffffffffffffff16021790555060a0820151816005019080519060200190610925929190610c49565b5060c0820151816006019080519060200190610942929190610c49565b5060e082015181600701908051906020019061095f929190610ccf565b5061010082015181600801908051906020019061097d929190610c49565b50905050336001600086815260200190815260200160002060006101000a81548173ffffffffffffffffffffffffffffffffffffffff021916908373ffffffffffffffffffffffffffffffffffffffff1602179055508273ffffffffffffffffffffffffffffffffffffffff167f58f6279d26a4574c67ef3a733e897c5f241843e348753e998bab35156d0757ac338a8a604051610a1d93929190611646565b60405180910390a25050505050505050505050505050565b8373ffffffffffffffffffffffffffffffffffffffff166108fc349081150290604051600060405180830381858888f19350505050158015610a7b573d6000803e3d6000fd5b506040518060400160405280600681526020017f636c6f73656400000000000000000000000000000000000000000000000000008152506000808573ffffffffffffffffffffffffffffffffffffffff1673ffffffffffffffffffffffffffffffffffffffff1681526020019081526020016000206008019080519060200190610b06929190610c49565b5081816000808673ffffffffffffffffffffffffffffffffffffffff1673ffffffffffffffffffffffffffffffffffffffff1681526020019081526020016000206005019190610b57929190610d59565b503373ffffffffffffffffffffffffffffffffffffffff168473ffffffffffffffffffffffffffffffffffffffff167f15f05f057a35abd62deb8575f0b4d8b6a1b44039770848e6ba334b012d04b70634604051610bb59190611687565b60405180910390a350505050565b600081600001549050919050565b6001816000016000828254019250508190555050565b60405180610120016040528060008152602001600081526020016060815260200160608152602001600073ffffffffffffffffffffffffffffffffffffffff168152602001606081526020016060815260200160608152602001606081525090565b828054610c55906114d6565b90600052602060002090601f016020900481019282610c775760008555610cbe565b82601f10610c9057805160ff1916838001178555610cbe565b82800160010185558215610cbe579182015b82811115610cbd578251825591602001919060010190610ca2565b5b509050610ccb9190610ddf565b5090565b828054828255906000526020600020908101928215610d48579160200282015b82811115610d475782518260006101000a81548173ffffffffffffffffffffffffffffffffffffffff021916908373ffffffffffffffffffffffffffffffffffffffff16021790555091602001919060010190610cef565b5b509050610d559190610ddf565b5090565b828054610d65906114d6565b90600052602060002090601f016020900481019282610d875760008555610dce565b82601f10610da057803560ff1916838001178555610dce565b82800160010185558215610dce579182015b82811115610dcd578235825591602001919060010190610db2565b5b509050610ddb9190610ddf565b5090565b5b80821115610df8576000816000905550600101610de0565b5090565b600081519050919050565b600082825260208201905092915050565b6000819050602082019050919050565b6000819050919050565b610e3b81610e28565b82525050565b600081519050919050565b600082825260208201905092915050565b60005b83811015610e7b578082015181840152602081019050610e60565b83811115610e8a576000848401525b50505050565b6000601f19601f8301169050919050565b6000610eac82610e41565b610eb68185610e4c565b9350610ec6818560208601610e5d565b610ecf81610e90565b840191505092915050565b600073ffffffffffffffffffffffffffffffffffffffff82169050919050565b6000610f0582610eda565b9050919050565b610f1581610efa565b82525050565b600081519050919050565b600082825260208201905092915050565b6000819050602082019050919050565b6000610f538383610f0c565b60208301905092915050565b6000602082019050919050565b6000610f7782610f1b565b610f818185610f26565b9350610f8c83610f37565b8060005b83811015610fbd578151610fa48882610f47565b9750610faf83610f5f565b925050600181019050610f90565b5085935050505092915050565b600061012083016000830151610fe36000860182610e32565b506020830151610ff66020860182610e32565b506040830151848203604086015261100e8282610ea1565b915050606083015184820360608601526110288282610ea1565b915050608083015161103d6080860182610f0c565b5060a083015184820360a08601526110558282610ea1565b91505060c083015184820360c086015261106f8282610ea1565b91505060e083015184820360e08601526110898282610f6c565b9150506101008301518482036101008601526110a58282610ea1565b9150508091505092915050565b60006110be8383610fca565b905092915050565b6000602082019050919050565b60006110de82610dfc565b6110e88185610e07565b9350836020820285016110fa85610e18565b8060005b85811015611136578484038952815161111785826110b2565b9450611122836110c6565b925060208a019950506001810190506110fe565b50829750879550505050505092915050565b6000602082019050818103600083015261116281846110d3565b905092915050565b600080fd5b600080fd5b61117d81610e28565b811461118857600080fd5b50565b60008135905061119a81611174565b92915050565b600080fd5b600080fd5b600080fd5b60008083601f8401126111c5576111c46111a0565b5b8235905067ffffffffffffffff8111156111e2576111e16111a5565b5b6020830191508360018202830111156111fe576111fd6111aa565b5b9250929050565b60008060008060008060008060008060c08b8d0312156112285761122761116a565b5b60006112368d828e0161118b565b9a505060206112478d828e0161118b565b99505060408b013567ffffffffffffffff8111156112685761126761116f565b5b6112748d828e016111af565b985098505060608b013567ffffffffffffffff8111156112975761129661116f565b5b6112a38d828e016111af565b965096505060808b013567ffffffffffffffff8111156112c6576112c561116f565b5b6112d28d828e016111af565b945094505060a08b013567ffffffffffffffff8111156112f5576112f461116f565b5b6113018d828e016111af565b92509250509295989b9194979a5092959850565b600061132082610eda565b9050919050565b61133081611315565b811461133b57600080fd5b50565b60008135905061134d81611327565b92915050565b61135c81610efa565b811461136757600080fd5b50565b60008135905061137981611353565b92915050565b600080600080606085870312156113995761139861116a565b5b60006113a78782880161133e565b94505060206113b88782880161136a565b935050604085013567ffffffffffffffff8111156113d9576113d861116f565b5b6113e5878288016111af565b925092505092959194509250565b7f4e487b7100000000000000000000000000000000000000000000000000000000600052604160045260246000fd5b7f4e487b7100000000000000000000000000000000000000000000000000000000600052601160045260246000fd5b600061145c82610e28565b915061146783610e28565b9250827fffffffffffffffffffffffffffffffffffffffffffffffffffffffffffffffff0382111561149c5761149b611422565b5b828201905092915050565b7f4e487b7100000000000000000000000000000000000000000000000000000000600052602260045260246000fd5b600060028204905060018216806114ee57607f821691505b602082108103611501576115006114a7565b5b50919050565b7f4e487b7100000000000000000000000000000000000000000000000000000000600052603260045260246000fd5b600061154182610e28565b91507fffffffffffffffffffffffffffffffffffffffffffffffffffffffffffffffff820361157357611572611422565b5b600182019050919050565b600082825260208201905092915050565b7f53656e6465722061646472657373206d7573742062652076616c696400000000600082015250565b60006115c5601c8361157e565b91506115d08261158f565b602082019050919050565b600060208201905081810360008301526115f4816115b8565b9050919050565b61160481610efa565b82525050565b82818337600083830152505050565b6000611625838561157e565b935061163283858461160a565b61163b83610e90565b840190509392505050565b600060408201905061165b60008301866115fb565b818103602083015261166e818486611619565b9050949350505050565b61168181610e28565b82525050565b600060208201905061169c6000830184611678565b9291505056fea2646970667358221220a831582633107c24e760c1402919ce948349e7b935db130fe90f6fe5e51ccbbd64736f6c634300080e0033",
  "immutableReferences": {},
  "source": "pragma solidity ^0.8.7;\r\n\r\nimport \"./ConvertLib.sol\";\r\nimport \"@openzeppelin/contracts/utils/Counters.sol\";\r\n\r\n// This is just a simple example of a coin-like contract.\r\n// It is not standards compatible and cannot be expected to talk to other\r\n// coin/token contracts. If you want to create a standards-compliant\r\n// token, see: https://github.com/ConsenSys/Tokens. Cheers!\r\n\r\ncontract Rides {\r\n\r\n\r\n    struct Bid {\r\n        string rider;\r\n        uint ammount;\r\n    }\r\n\r\n    struct Ride {\r\n    uint cost;\r\n    uint timeActive;\r\n    string date;\r\n    string hour;\r\n    address driver;\r\n    string rider;\r\n    string destination;\r\n    address [] bids;\r\n    string status;\r\n    }\r\n\r\n    mapping(address => Ride) private rides;\r\n    mapping(uint=> address) private accounts;\r\n\r\n    using Counters for Counters.Counter;\r\n    Counters.Counter private ridesIds;\r\n    event rideCreated(address indexed canditateAddress, address driver, string rider);\r\n    event Selected(address indexed _driverAddress, address indexed _riderAddress, uint _totalPayed);\r\n\r\n\r\n        function payRide(address payable _receiver, address rideId, string calldata rider) public payable {\r\n        _receiver.transfer(msg.value);\r\n        rides[rideId].status = \"closed\";\r\n        rides[rideId].rider = rider;\r\n        emit Selected(_receiver, msg.sender, msg.value);\r\n    }\r\n\r\n    function registerRide(\r\n        uint cost,\r\n        uint timeActive,\r\n        string calldata date,\r\n        string calldata hour,\r\n        string calldata rider,\r\n        string calldata destination\r\n        ) external {\r\n    require(msg.sender != address(0), \"Sender address must be valid\"); \r\n    ridesIds.increment();\r\n    uint rideId = ridesIds.current();\r\n    address _address = address(msg.sender);\r\n    address [] memory bids = new address[](0);\r\n    Ride memory newRide = Ride(cost, timeActive, date, hour, msg.sender, rider, destination, bids , \"open\");  \r\n    rides[_address] = newRide;  \r\n    accounts[rideId] = msg.sender;\r\n    emit rideCreated(_address, msg.sender, rider);\r\n    }\r\n\r\n    function fetchRides() external  view  returns ( Ride[] memory) {\r\n        uint itemCount = ridesIds.current();\r\n        Ride[] memory ridesArray = new Ride[](itemCount);\r\n            for (uint i = 0; i < itemCount; i++) {\r\n                uint currentId = i + 1;\r\n                Ride memory currentRide = rides[accounts[currentId]];\r\n                ridesArray[i] = currentRide;\r\n            }\r\n            return ridesArray;\r\n        }\r\n}",
  "sourcePath": "C:\\Users\\oscar\\Desktop\\tec-ride\\contracts\\Rides.sol",
  "compiler": {
    "name": "solc",
    "version": "0.8.14+commit.80d49f37.Emscripten.clang"
  },
  "schemaVersion": "3.4.7",
  "updatedAt": "2022-05-30T03:57:01.075Z",
  "networkType": "ethereum",
  "devdoc": {
    "kind": "dev",
    "methods": {},
    "version": 1
  },
  "userdoc": {
    "kind": "user",
    "methods": {},
    "version": 1
  }
}