{
  "contractName": "Rides",
  "abi": [
    {
      "anonymous": false,
      "inputs": [
        {
          "indexed": true,
          "internalType": "address",
          "name": "_driverAddress",
          "type": "address"
        },
        {
          "indexed": true,
          "internalType": "address",
          "name": "_riderAddress",
          "type": "address"
        },
        {
          "indexed": false,
          "internalType": "uint256",
          "name": "_totalPayed",
          "type": "uint256"
        }
      ],
      "name": "Selected",
      "type": "event"
    },
    {
      "anonymous": false,
      "inputs": [
        {
          "indexed": true,
          "internalType": "address",
          "name": "canditateAddress",
          "type": "address"
        },
        {
          "indexed": false,
          "internalType": "address",
          "name": "driver",
          "type": "address"
        },
        {
          "indexed": false,
          "internalType": "string",
          "name": "rider",
          "type": "string"
        }
      ],
      "name": "rideCreated",
      "type": "event"
    },
    {
      "inputs": [
        {
          "internalType": "address payable",
          "name": "_receiver",
          "type": "address"
        },
        {
          "internalType": "string",
          "name": "rider",
          "type": "string"
        }
      ],
      "name": "payRide",
      "outputs": [],
      "stateMutability": "payable",
      "type": "function",
      "payable": true
    },
    {
      "inputs": [
        {
          "internalType": "uint256",
          "name": "cost",
          "type": "uint256"
        },
        {
          "internalType": "uint256",
          "name": "timeActive",
          "type": "uint256"
        },
        {
          "internalType": "string",
          "name": "date",
          "type": "string"
        },
        {
          "internalType": "string",
          "name": "hour",
          "type": "string"
        },
        {
          "internalType": "string",
          "name": "rider",
          "type": "string"
        },
        {
          "internalType": "string",
          "name": "destination",
          "type": "string"
        }
      ],
      "name": "registerRide",
      "outputs": [],
      "stateMutability": "nonpayable",
      "type": "function"
    },
    {
      "inputs": [],
      "name": "fetchRides",
      "outputs": [
        {
          "components": [
            {
              "internalType": "uint256",
              "name": "id",
              "type": "uint256"
            },
            {
              "internalType": "uint256",
              "name": "cost",
              "type": "uint256"
            },
            {
              "internalType": "uint256",
              "name": "timeActive",
              "type": "uint256"
            },
            {
              "internalType": "string",
              "name": "date",
              "type": "string"
            },
            {
              "internalType": "string",
              "name": "hour",
              "type": "string"
            },
            {
              "internalType": "address",
              "name": "driver",
              "type": "address"
            },
            {
              "internalType": "string",
              "name": "rider",
              "type": "string"
            },
            {
              "internalType": "string",
              "name": "destination",
              "type": "string"
            },
            {
              "internalType": "string",
              "name": "bids",
              "type": "string"
            },
            {
              "internalType": "string",
              "name": "status",
              "type": "string"
            }
          ],
          "internalType": "struct Rides.Ride[]",
          "name": "",
          "type": "tuple[]"
        }
      ],
      "stateMutability": "view",
      "type": "function",
      "constant": true
    },
    {
      "inputs": [],
      "name": "fetchRidesDriver",
      "outputs": [
        {
          "components": [
            {
              "internalType": "uint256",
              "name": "id",
              "type": "uint256"
            },
            {
              "internalType": "uint256",
              "name": "cost",
              "type": "uint256"
            },
            {
              "internalType": "uint256",
              "name": "timeActive",
              "type": "uint256"
            },
            {
              "internalType": "string",
              "name": "date",
              "type": "string"
            },
            {
              "internalType": "string",
              "name": "hour",
              "type": "string"
            },
            {
              "internalType": "address",
              "name": "driver",
              "type": "address"
            },
            {
              "internalType": "string",
              "name": "rider",
              "type": "string"
            },
            {
              "internalType": "string",
              "name": "destination",
              "type": "string"
            },
            {
              "internalType": "string",
              "name": "bids",
              "type": "string"
            },
            {
              "internalType": "string",
              "name": "status",
              "type": "string"
            }
          ],
          "internalType": "struct Rides.Ride[]",
          "name": "",
          "type": "tuple[]"
        }
      ],
      "stateMutability": "view",
      "type": "function",
      "constant": true
    },
    {
      "inputs": [
        {
          "internalType": "string",
          "name": "bids",
          "type": "string"
        },
        {
          "internalType": "address",
          "name": "rideId",
          "type": "address"
        }
      ],
      "name": "makeBid",
      "outputs": [],
      "stateMutability": "nonpayable",
      "type": "function"
    },
    {
      "inputs": [
        {
          "internalType": "address",
          "name": "driver",
          "type": "address"
        },
        {
          "internalType": "string",
          "name": "rider",
          "type": "string"
        },
        {
          "internalType": "uint256",
          "name": "cost",
          "type": "uint256"
        }
      ],
      "name": "preAproveRide",
      "outputs": [],
      "stateMutability": "nonpayable",
      "type": "function"
    }
  ],
  "bytecode": "0x608060405234801561001057600080fd5b50611e42806100206000396000f3fe6080604052600436106100555760003560e01c806335549cca1461005a57806360aa141e14610085578063718acd50146100ae5780639cdbdb68146100d7578063d5a9ee1c14610100578063eda0aa1a1461012b575b600080fd5b34801561006657600080fd5b5061006f610147565b60405161007c91906117f2565b60405180910390f35b34801561009157600080fd5b506100ac60048036038101906100a791906118af565b610669565b005b3480156100ba57600080fd5b506100d560048036038101906100d0919061193b565b6106bf565b005b3480156100e357600080fd5b506100fe60048036038101906100f99190611a4b565b610b09565b005b34801561010c57600080fd5b50610115610c31565b60405161012291906117f2565b60405180910390f35b61014560048036038101906101409190611afd565b6111a5565b005b60606000610155600261138a565b905060008167ffffffffffffffff81111561017357610172611b5d565b5b6040519080825280602002602001820160405280156101ac57816020015b6101996113ae565b8152602001906001900390816101915790505b50905060005b828110156106605760006001826101c99190611bbb565b905060008060006001600085815260200190815260200160002060009054906101000a900473ffffffffffffffffffffffffffffffffffffffff1673ffffffffffffffffffffffffffffffffffffffff1673ffffffffffffffffffffffffffffffffffffffff1681526020019081526020016000206040518061014001604052908160008201548152602001600182015481526020016002820154815260200160038201805461027890611c40565b80601f01602080910402602001604051908101604052809291908181526020018280546102a490611c40565b80156102f15780601f106102c6576101008083540402835291602001916102f1565b820191906000526020600020905b8154815290600101906020018083116102d457829003601f168201915b5050505050815260200160048201805461030a90611c40565b80601f016020809104026020016040519081016040528092919081815260200182805461033690611c40565b80156103835780601f1061035857610100808354040283529160200191610383565b820191906000526020600020905b81548152906001019060200180831161036657829003601f168201915b505050505081526020016005820160009054906101000a900473ffffffffffffffffffffffffffffffffffffffff1673ffffffffffffffffffffffffffffffffffffffff1673ffffffffffffffffffffffffffffffffffffffff1681526020016006820180546103f290611c40565b80601f016020809104026020016040519081016040528092919081815260200182805461041e90611c40565b801561046b5780601f106104405761010080835404028352916020019161046b565b820191906000526020600020905b81548152906001019060200180831161044e57829003601f168201915b5050505050815260200160078201805461048490611c40565b80601f01602080910402602001604051908101604052809291908181526020018280546104b090611c40565b80156104fd5780601f106104d2576101008083540402835291602001916104fd565b820191906000526020600020905b8154815290600101906020018083116104e057829003601f168201915b5050505050815260200160088201805461051690611c40565b80601f016020809104026020016040519081016040528092919081815260200182805461054290611c40565b801561058f5780601f106105645761010080835404028352916020019161058f565b820191906000526020600020905b81548152906001019060200180831161057257829003601f168201915b505050505081526020016009820180546105a890611c40565b80601f01602080910402602001604051908101604052809291908181526020018280546105d490611c40565b80156106215780601f106105f657610100808354040283529160200191610621565b820191906000526020600020905b81548152906001019060200180831161060457829003601f168201915b5050505050815250509050808484815181106106405761063f611c71565b5b60200260200101819052505050808061065890611ca0565b9150506101b2565b50809250505090565b82826000808473ffffffffffffffffffffffffffffffffffffffff1673ffffffffffffffffffffffffffffffffffffffff16815260200190815260200160002060080191906106b9929190611417565b50505050565b600073ffffffffffffffffffffffffffffffffffffffff163373ffffffffffffffffffffffffffffffffffffffff160361072e576040517f08c379a000000000000000000000000000000000000000000000000000000000815260040161072590611d45565b60405180910390fd5b6107386002611398565b6000610744600261138a565b9050600033905060006040518061014001604052808481526020018e81526020018d81526020018c8c8080601f016020809104026020016040519081016040528093929190818152602001838380828437600081840152601f19601f8201169050808301925050505050505081526020018a8a8080601f016020809104026020016040519081016040528093929190818152602001838380828437600081840152601f19601f8201169050808301925050505050505081526020013373ffffffffffffffffffffffffffffffffffffffff16815260200188888080601f016020809104026020016040519081016040528093929190818152602001838380828437600081840152601f19601f82011690508083019250505050505050815260200186868080601f016020809104026020016040519081016040528093929190818152602001838380828437600081840152601f19601f8201169050808301925050505050505081526020016040518060200160405280600081525081526020016040518060400160405280600481526020017f6f70656e000000000000000000000000000000000000000000000000000000008152508152509050806000808473ffffffffffffffffffffffffffffffffffffffff1673ffffffffffffffffffffffffffffffffffffffff168152602001908152602001600020600082015181600001556020820151816001015560408201518160020155606082015181600301908051906020019061097892919061149d565b50608082015181600401908051906020019061099592919061149d565b5060a08201518160050160006101000a81548173ffffffffffffffffffffffffffffffffffffffff021916908373ffffffffffffffffffffffffffffffffffffffff16021790555060c08201518160060190805190602001906109f992919061149d565b5060e0820151816007019080519060200190610a1692919061149d565b50610100820151816008019080519060200190610a3492919061149d565b50610120820151816009019080519060200190610a5292919061149d565b50905050336001600085815260200190815260200160002060006101000a81548173ffffffffffffffffffffffffffffffffffffffff021916908373ffffffffffffffffffffffffffffffffffffffff1602179055508173ffffffffffffffffffffffffffffffffffffffff167f58f6279d26a4574c67ef3a733e897c5f241843e348753e998bab35156d0757ac338989604051610af293929190611db0565b60405180910390a250505050505050505050505050565b6040518060400160405280600781526020017f70656e64696e67000000000000000000000000000000000000000000000000008152506000808673ffffffffffffffffffffffffffffffffffffffff1673ffffffffffffffffffffffffffffffffffffffff1681526020019081526020016000206009019080519060200190610b9392919061149d565b5082826000808773ffffffffffffffffffffffffffffffffffffffff1673ffffffffffffffffffffffffffffffffffffffff1681526020019081526020016000206006019190610be4929190611417565b50806000808673ffffffffffffffffffffffffffffffffffffffff1673ffffffffffffffffffffffffffffffffffffffff1681526020019081526020016000206001018190555050505050565b60606000610c3f600261138a565b905060008167ffffffffffffffff811115610c5d57610c5c611b5d565b5b604051908082528060200260200182016040528015610c9657816020015b610c836113ae565b815260200190600190039081610c7b5790505b50905060005b8281101561119c573373ffffffffffffffffffffffffffffffffffffffff16828281518110610cce57610ccd611c71565b5b602002602001015160a0015173ffffffffffffffffffffffffffffffffffffffff1603611189576000600182610d049190611bbb565b905060008060006001600085815260200190815260200160002060009054906101000a900473ffffffffffffffffffffffffffffffffffffffff1673ffffffffffffffffffffffffffffffffffffffff1673ffffffffffffffffffffffffffffffffffffffff16815260200190815260200160002060405180610140016040529081600082015481526020016001820154815260200160028201548152602001600382018054610db390611c40565b80601f0160208091040260200160405190810160405280929190818152602001828054610ddf90611c40565b8015610e2c5780601f10610e0157610100808354040283529160200191610e2c565b820191906000526020600020905b815481529060010190602001808311610e0f57829003601f168201915b50505050508152602001600482018054610e4590611c40565b80601f0160208091040260200160405190810160405280929190818152602001828054610e7190611c40565b8015610ebe5780601f10610e9357610100808354040283529160200191610ebe565b820191906000526020600020905b815481529060010190602001808311610ea157829003601f168201915b505050505081526020016005820160009054906101000a900473ffffffffffffffffffffffffffffffffffffffff1673ffffffffffffffffffffffffffffffffffffffff1673ffffffffffffffffffffffffffffffffffffffff168152602001600682018054610f2d90611c40565b80601f0160208091040260200160405190810160405280929190818152602001828054610f5990611c40565b8015610fa65780601f10610f7b57610100808354040283529160200191610fa6565b820191906000526020600020905b815481529060010190602001808311610f8957829003601f168201915b50505050508152602001600782018054610fbf90611c40565b80601f0160208091040260200160405190810160405280929190818152602001828054610feb90611c40565b80156110385780601f1061100d57610100808354040283529160200191611038565b820191906000526020600020905b81548152906001019060200180831161101b57829003601f168201915b5050505050815260200160088201805461105190611c40565b80601f016020809104026020016040519081016040528092919081815260200182805461107d90611c40565b80156110ca5780601f1061109f576101008083540402835291602001916110ca565b820191906000526020600020905b8154815290600101906020018083116110ad57829003601f168201915b505050505081526020016009820180546110e390611c40565b80601f016020809104026020016040519081016040528092919081815260200182805461110f90611c40565b801561115c5780601f106111315761010080835404028352916020019161115c565b820191906000526020600020905b81548152906001019060200180831161113f57829003601f168201915b50505050508152505090508084848151811061117b5761117a611c71565b5b602002602001018190525050505b808061119490611ca0565b915050610c9c565b50809250505090565b8273ffffffffffffffffffffffffffffffffffffffff166108fc349081150290604051600060405180830381858888f193505050501580156111eb573d6000803e3d6000fd5b5060003390506040518060400160405280600681526020017f636c6f73656400000000000000000000000000000000000000000000000000008152506000808373ffffffffffffffffffffffffffffffffffffffff1673ffffffffffffffffffffffffffffffffffffffff168152602001908152602001600020600901908051906020019061127b92919061149d565b5082826000808473ffffffffffffffffffffffffffffffffffffffff1673ffffffffffffffffffffffffffffffffffffffff16815260200190815260200160002060060191906112cc929190611417565b50336001600080815260200190815260200160002060006101000a81548173ffffffffffffffffffffffffffffffffffffffff021916908373ffffffffffffffffffffffffffffffffffffffff1602179055503373ffffffffffffffffffffffffffffffffffffffff168473ffffffffffffffffffffffffffffffffffffffff167f15f05f057a35abd62deb8575f0b4d8b6a1b44039770848e6ba334b012d04b7063460405161137c9190611df1565b60405180910390a350505050565b600081600001549050919050565b6001816000016000828254019250508190555050565b6040518061014001604052806000815260200160008152602001600081526020016060815260200160608152602001600073ffffffffffffffffffffffffffffffffffffffff168152602001606081526020016060815260200160608152602001606081525090565b82805461142390611c40565b90600052602060002090601f016020900481019282611445576000855561148c565b82601f1061145e57803560ff191683800117855561148c565b8280016001018555821561148c579182015b8281111561148b578235825591602001919060010190611470565b5b5090506114999190611523565b5090565b8280546114a990611c40565b90600052602060002090601f0160209004810192826114cb5760008555611512565b82601f106114e457805160ff1916838001178555611512565b82800160010185558215611512579182015b828111156115115782518255916020019190600101906114f6565b5b50905061151f9190611523565b5090565b5b8082111561153c576000816000905550600101611524565b5090565b600081519050919050565b600082825260208201905092915050565b6000819050602082019050919050565b6000819050919050565b61157f8161156c565b82525050565b600081519050919050565b600082825260208201905092915050565b60005b838110156115bf5780820151818401526020810190506115a4565b838111156115ce576000848401525b50505050565b6000601f19601f8301169050919050565b60006115f082611585565b6115fa8185611590565b935061160a8185602086016115a1565b611613816115d4565b840191505092915050565b600073ffffffffffffffffffffffffffffffffffffffff82169050919050565b60006116498261161e565b9050919050565b6116598161163e565b82525050565b6000610140830160008301516116786000860182611576565b50602083015161168b6020860182611576565b50604083015161169e6040860182611576565b50606083015184820360608601526116b682826115e5565b915050608083015184820360808601526116d082826115e5565b91505060a08301516116e560a0860182611650565b5060c083015184820360c08601526116fd82826115e5565b91505060e083015184820360e086015261171782826115e5565b91505061010083015184820361010086015261173382826115e5565b91505061012083015184820361012086015261174f82826115e5565b9150508091505092915050565b6000611768838361165f565b905092915050565b6000602082019050919050565b600061178882611540565b611792818561154b565b9350836020820285016117a48561155c565b8060005b858110156117e057848403895281516117c1858261175c565b94506117cc83611770565b925060208a019950506001810190506117a8565b50829750879550505050505092915050565b6000602082019050818103600083015261180c818461177d565b905092915050565b600080fd5b600080fd5b600080fd5b600080fd5b600080fd5b60008083601f8401126118435761184261181e565b5b8235905067ffffffffffffffff8111156118605761185f611823565b5b60208301915083600182028301111561187c5761187b611828565b5b9250929050565b61188c8161163e565b811461189757600080fd5b50565b6000813590506118a981611883565b92915050565b6000806000604084860312156118c8576118c7611814565b5b600084013567ffffffffffffffff8111156118e6576118e5611819565b5b6118f28682870161182d565b935093505060206119058682870161189a565b9150509250925092565b6119188161156c565b811461192357600080fd5b50565b6000813590506119358161190f565b92915050565b60008060008060008060008060008060c08b8d03121561195e5761195d611814565b5b600061196c8d828e01611926565b9a5050602061197d8d828e01611926565b99505060408b013567ffffffffffffffff81111561199e5761199d611819565b5b6119aa8d828e0161182d565b985098505060608b013567ffffffffffffffff8111156119cd576119cc611819565b5b6119d98d828e0161182d565b965096505060808b013567ffffffffffffffff8111156119fc576119fb611819565b5b611a088d828e0161182d565b945094505060a08b013567ffffffffffffffff811115611a2b57611a2a611819565b5b611a378d828e0161182d565b92509250509295989b9194979a5092959850565b60008060008060608587031215611a6557611a64611814565b5b6000611a738782880161189a565b945050602085013567ffffffffffffffff811115611a9457611a93611819565b5b611aa08782880161182d565b93509350506040611ab387828801611926565b91505092959194509250565b6000611aca8261161e565b9050919050565b611ada81611abf565b8114611ae557600080fd5b50565b600081359050611af781611ad1565b92915050565b600080600060408486031215611b1657611b15611814565b5b6000611b2486828701611ae8565b935050602084013567ffffffffffffffff811115611b4557611b44611819565b5b611b518682870161182d565b92509250509250925092565b7f4e487b7100000000000000000000000000000000000000000000000000000000600052604160045260246000fd5b7f4e487b7100000000000000000000000000000000000000000000000000000000600052601160045260246000fd5b6000611bc68261156c565b9150611bd18361156c565b9250827fffffffffffffffffffffffffffffffffffffffffffffffffffffffffffffffff03821115611c0657611c05611b8c565b5b828201905092915050565b7f4e487b7100000000000000000000000000000000000000000000000000000000600052602260045260246000fd5b60006002820490506001821680611c5857607f821691505b602082108103611c6b57611c6a611c11565b5b50919050565b7f4e487b7100000000000000000000000000000000000000000000000000000000600052603260045260246000fd5b6000611cab8261156c565b91507fffffffffffffffffffffffffffffffffffffffffffffffffffffffffffffffff8203611cdd57611cdc611b8c565b5b600182019050919050565b600082825260208201905092915050565b7f53656e6465722061646472657373206d7573742062652076616c696400000000600082015250565b6000611d2f601c83611ce8565b9150611d3a82611cf9565b602082019050919050565b60006020820190508181036000830152611d5e81611d22565b9050919050565b611d6e8161163e565b82525050565b82818337600083830152505050565b6000611d8f8385611ce8565b9350611d9c838584611d74565b611da5836115d4565b840190509392505050565b6000604082019050611dc56000830186611d65565b8181036020830152611dd8818486611d83565b9050949350505050565b611deb8161156c565b82525050565b6000602082019050611e066000830184611de2565b9291505056fea2646970667358221220fa18fad1402baffe29465a68d6652faf81860cd38d5ad24aa2c0e3a58fd5698664736f6c634300080e0033",
  "immutableReferences": {},
  "source": "pragma solidity ^0.8.7;\r\n\r\nimport \"./ConvertLib.sol\";\r\nimport \"@openzeppelin/contracts/utils/Counters.sol\";\r\n\r\n// This is just a simple example of a coin-like contract.\r\n// It is not standards compatible and cannot be expected to talk to other\r\n// coin/token contracts. If you want to create a standards-compliant\r\n// token, see: https://github.com/ConsenSys/Tokens. Cheers!\r\n\r\ncontract Rides {\r\n\r\n\r\n    struct Ride {\r\n    uint id;\r\n    uint cost;\r\n    uint timeActive;\r\n    string date;\r\n    string hour;\r\n    address driver;\r\n    string rider;\r\n    string destination;\r\n    string bids;\r\n    string status;\r\n    }\r\n\r\n    mapping(address => Ride) private rides;\r\n    mapping(uint=> address) private accounts;\r\n\r\n    using Counters for Counters.Counter;\r\n    Counters.Counter private ridesIds;\r\n    event rideCreated(address indexed canditateAddress, address driver, string rider);\r\n    event Selected(address indexed _driverAddress, address indexed _riderAddress, uint _totalPayed);\r\n\r\n\r\n        function payRide(address payable _receiver, string calldata rider) public payable {\r\n        _receiver.transfer(msg.value);\r\n        address _address = address(msg.sender);\r\n        rides[_address].status = \"closed\";\r\n        rides[_address].rider = rider; \r\n        accounts[0] = msg.sender; \r\n        emit Selected(_receiver, msg.sender, msg.value);\r\n    }\r\n\r\n    function registerRide(\r\n        uint cost,\r\n        uint timeActive,\r\n        string calldata date,\r\n        string calldata hour,\r\n        string calldata rider,\r\n        string calldata destination\r\n        ) external {\r\n    require(msg.sender != address(0), \"Sender address must be valid\"); \r\n    ridesIds.increment();\r\n    uint rideId = ridesIds.current();\r\n    address _address = address(msg.sender);\r\n    Ride memory newRide = Ride(rideId, cost, timeActive, date, hour, msg.sender, rider, destination, \"\" , \"open\");  \r\n    rides[_address] = newRide;  \r\n    accounts[rideId] = msg.sender;\r\n    emit rideCreated(_address, msg.sender, rider);\r\n    }\r\n\r\n    function fetchRides() external  view  returns ( Ride[] memory) {\r\n        uint itemCount = ridesIds.current();\r\n        Ride[] memory ridesArray = new Ride[](itemCount);\r\n            for (uint i = 0; i < itemCount; i++) {\r\n                uint currentId = i + 1;\r\n                Ride memory currentRide = rides[accounts[currentId]];\r\n                ridesArray[i] = currentRide;\r\n            }\r\n            return ridesArray;\r\n        }\r\n\r\n\r\n    function fetchRidesDriver()external view returns (Ride[] memory) {\r\n        uint itemCount = ridesIds.current();\r\n        Ride[] memory ridesArray = new Ride[](itemCount);\r\n            for (uint i = 0; i < itemCount; i++) {\r\n                if (ridesArray[i].driver == msg.sender){\r\n                uint currentId = i + 1;\r\n                Ride memory currentRide = rides[accounts[currentId]];\r\n                \r\n                    ridesArray[i] = currentRide;\r\n                }\r\n                \r\n            }\r\n            return ridesArray;        \r\n    }\r\n\r\n    function makeBid(string calldata bids , address rideId) public {\r\n        rides[rideId].bids = bids;\r\n\r\n    }\r\n\r\n    function preAproveRide(address driver, string calldata rider, uint cost) public {\r\n        rides[driver].status = \"pending\";\r\n        rides[driver].rider = rider;\r\n        rides[driver].cost = cost; \r\n    }\r\n}",
  "sourcePath": "C:\\Users\\oscar\\Desktop\\tec-ride\\contracts\\Rides.sol",
  "compiler": {
    "name": "solc",
    "version": "0.8.14+commit.80d49f37.Emscripten.clang"
  },
  "schemaVersion": "3.4.7",
  "updatedAt": "2022-06-09T02:15:22.414Z",
  "networkType": "ethereum",
  "devdoc": {
    "kind": "dev",
    "methods": {},
    "version": 1
  },
  "userdoc": {
    "kind": "user",
    "methods": {},
    "version": 1
  }
}