{
  "contractName": "Rides",
  "abi": [
    {
      "anonymous": false,
      "inputs": [
        {
          "indexed": true,
          "internalType": "address",
          "name": "_driverAddress",
          "type": "address"
        },
        {
          "indexed": true,
          "internalType": "address",
          "name": "_riderAddress",
          "type": "address"
        },
        {
          "indexed": false,
          "internalType": "uint256",
          "name": "_totalPayed",
          "type": "uint256"
        }
      ],
      "name": "Selected",
      "type": "event"
    },
    {
      "anonymous": false,
      "inputs": [
        {
          "indexed": true,
          "internalType": "address",
          "name": "canditateAddress",
          "type": "address"
        },
        {
          "indexed": false,
          "internalType": "string",
          "name": "name",
          "type": "string"
        }
      ],
      "name": "rideCreated",
      "type": "event"
    },
    {
      "inputs": [
        {
          "internalType": "address payable",
          "name": "_receiver",
          "type": "address"
        },
        {
          "internalType": "address",
          "name": "rideId",
          "type": "address"
        }
      ],
      "name": "payRide",
      "outputs": [],
      "stateMutability": "payable",
      "type": "function",
      "payable": true
    },
    {
      "inputs": [
        {
          "internalType": "string",
          "name": "_name",
          "type": "string"
        }
      ],
      "name": "registerRide",
      "outputs": [],
      "stateMutability": "nonpayable",
      "type": "function"
    },
    {
      "inputs": [],
      "name": "fetchRides",
      "outputs": [
        {
          "components": [
            {
              "internalType": "uint256",
              "name": "id",
              "type": "uint256"
            },
            {
              "internalType": "uint256",
              "name": "cost",
              "type": "uint256"
            },
            {
              "internalType": "uint256",
              "name": "timeActive",
              "type": "uint256"
            },
            {
              "internalType": "string",
              "name": "date",
              "type": "string"
            },
            {
              "internalType": "string",
              "name": "hour",
              "type": "string"
            },
            {
              "internalType": "address",
              "name": "driver",
              "type": "address"
            },
            {
              "internalType": "address",
              "name": "rider",
              "type": "address"
            },
            {
              "internalType": "string",
              "name": "destination",
              "type": "string"
            },
            {
              "internalType": "string",
              "name": "bids",
              "type": "string"
            },
            {
              "internalType": "string",
              "name": "status",
              "type": "string"
            }
          ],
          "internalType": "struct Rides.Ride[]",
          "name": "",
          "type": "tuple[]"
        }
      ],
      "stateMutability": "view",
      "type": "function",
      "constant": true
    }
  ],
  "bytecode": "0x608060405234801561001057600080fd5b5061139c806100206000396000f3fe6080604052600436106100345760003560e01c80631a2d487114610039578063245c4fbc1461005557806335549cca1461007e575b600080fd5b610053600480360381019061004e9190610d47565b6100a9565b005b34801561006157600080fd5b5061007c60048036038101906100779190610dec565b610264565b005b34801561008a57600080fd5b50610093610675565b6040516100a091906110b2565b60405180910390f35b8173ffffffffffffffffffffffffffffffffffffffff166108fc349081150290604051600060405180830381858888f193505050501580156100ef573d6000803e3d6000fd5b506040518060400160405280600681526020017f636c6f73656400000000000000000000000000000000000000000000000000008152506000808373ffffffffffffffffffffffffffffffffffffffff1673ffffffffffffffffffffffffffffffffffffffff168152602001908152602001600020600901908051906020019061017a929190610b7f565b50336000808373ffffffffffffffffffffffffffffffffffffffff1673ffffffffffffffffffffffffffffffffffffffff16815260200190815260200160002060060160006101000a81548173ffffffffffffffffffffffffffffffffffffffff021916908373ffffffffffffffffffffffffffffffffffffffff1602179055503373ffffffffffffffffffffffffffffffffffffffff168273ffffffffffffffffffffffffffffffffffffffff167f15f05f057a35abd62deb8575f0b4d8b6a1b44039770848e6ba334b012d04b7063460405161025891906110e3565b60405180910390a35050565b600073ffffffffffffffffffffffffffffffffffffffff163373ffffffffffffffffffffffffffffffffffffffff16036102d3576040517f08c379a00000000000000000000000000000000000000000000000000000000081526004016102ca9061115b565b60405180910390fd5b6102dd6002610b5b565b60006102e96002610b71565b90506000339050600060405180610140016040528084815260200160648152602001601881526020016040518060400160405280600781526020017f4d6179203372640000000000000000000000000000000000000000000000000081525081526020016040518060400160405280600b81526020017f31303a31303a303020414d00000000000000000000000000000000000000000081525081526020018373ffffffffffffffffffffffffffffffffffffffff1681526020018373ffffffffffffffffffffffffffffffffffffffff1681526020016040518060400160405280600b81526020017f626963686f6c616e64696100000000000000000000000000000000000000000081525081526020016040518060200160405280600081525081526020016040518060400160405280600481526020017f6f70656e000000000000000000000000000000000000000000000000000000008152508152509050806000808473ffffffffffffffffffffffffffffffffffffffff1673ffffffffffffffffffffffffffffffffffffffff16815260200190815260200160002060008201518160000155602082015181600101556040820151816002015560608201518160030190805190602001906104c4929190610b7f565b5060808201518160040190805190602001906104e1929190610b7f565b5060a08201518160050160006101000a81548173ffffffffffffffffffffffffffffffffffffffff021916908373ffffffffffffffffffffffffffffffffffffffff16021790555060c08201518160060160006101000a81548173ffffffffffffffffffffffffffffffffffffffff021916908373ffffffffffffffffffffffffffffffffffffffff16021790555060e082015181600701908051906020019061058c929190610b7f565b506101008201518160080190805190602001906105aa929190610b7f565b506101208201518160090190805190602001906105c8929190610b7f565b50905050336001600085815260200190815260200160002060006101000a81548173ffffffffffffffffffffffffffffffffffffffff021916908373ffffffffffffffffffffffffffffffffffffffff1602179055508173ffffffffffffffffffffffffffffffffffffffff167fb832e898601ac3778ecb44e6c6bbeaff796c7dc0feb59d26ff2462512169c5cc86866040516106669291906111b7565b60405180910390a25050505050565b606060006106836002610b71565b905060008167ffffffffffffffff8111156106a1576106a06111db565b5b6040519080825280602002602001820160405280156106da57816020015b6106c7610c05565b8152602001906001900390816106bf5790505b50905060005b82811015610b525760006001826106f79190611239565b905060008060006001600085815260200190815260200160002060009054906101000a900473ffffffffffffffffffffffffffffffffffffffff1673ffffffffffffffffffffffffffffffffffffffff1673ffffffffffffffffffffffffffffffffffffffff168152602001908152602001600020604051806101400160405290816000820154815260200160018201548152602001600282015481526020016003820180546107a6906112be565b80601f01602080910402602001604051908101604052809291908181526020018280546107d2906112be565b801561081f5780601f106107f45761010080835404028352916020019161081f565b820191906000526020600020905b81548152906001019060200180831161080257829003601f168201915b50505050508152602001600482018054610838906112be565b80601f0160208091040260200160405190810160405280929190818152602001828054610864906112be565b80156108b15780601f10610886576101008083540402835291602001916108b1565b820191906000526020600020905b81548152906001019060200180831161089457829003601f168201915b505050505081526020016005820160009054906101000a900473ffffffffffffffffffffffffffffffffffffffff1673ffffffffffffffffffffffffffffffffffffffff1673ffffffffffffffffffffffffffffffffffffffff1681526020016006820160009054906101000a900473ffffffffffffffffffffffffffffffffffffffff1673ffffffffffffffffffffffffffffffffffffffff1673ffffffffffffffffffffffffffffffffffffffff168152602001600782018054610976906112be565b80601f01602080910402602001604051908101604052809291908181526020018280546109a2906112be565b80156109ef5780601f106109c4576101008083540402835291602001916109ef565b820191906000526020600020905b8154815290600101906020018083116109d257829003601f168201915b50505050508152602001600882018054610a08906112be565b80601f0160208091040260200160405190810160405280929190818152602001828054610a34906112be565b8015610a815780601f10610a5657610100808354040283529160200191610a81565b820191906000526020600020905b815481529060010190602001808311610a6457829003601f168201915b50505050508152602001600982018054610a9a906112be565b80601f0160208091040260200160405190810160405280929190818152602001828054610ac6906112be565b8015610b135780601f10610ae857610100808354040283529160200191610b13565b820191906000526020600020905b815481529060010190602001808311610af657829003601f168201915b505050505081525050905080848481518110610b3257610b316112ef565b5b602002602001018190525050508080610b4a9061131e565b9150506106e0565b50809250505090565b6001816000016000828254019250508190555050565b600081600001549050919050565b828054610b8b906112be565b90600052602060002090601f016020900481019282610bad5760008555610bf4565b82601f10610bc657805160ff1916838001178555610bf4565b82800160010185558215610bf4579182015b82811115610bf3578251825591602001919060010190610bd8565b5b509050610c019190610c84565b5090565b6040518061014001604052806000815260200160008152602001600081526020016060815260200160608152602001600073ffffffffffffffffffffffffffffffffffffffff168152602001600073ffffffffffffffffffffffffffffffffffffffff1681526020016060815260200160608152602001606081525090565b5b80821115610c9d576000816000905550600101610c85565b5090565b600080fd5b600080fd5b600073ffffffffffffffffffffffffffffffffffffffff82169050919050565b6000610cd682610cab565b9050919050565b610ce681610ccb565b8114610cf157600080fd5b50565b600081359050610d0381610cdd565b92915050565b6000610d1482610cab565b9050919050565b610d2481610d09565b8114610d2f57600080fd5b50565b600081359050610d4181610d1b565b92915050565b60008060408385031215610d5e57610d5d610ca1565b5b6000610d6c85828601610cf4565b9250506020610d7d85828601610d32565b9150509250929050565b600080fd5b600080fd5b600080fd5b60008083601f840112610dac57610dab610d87565b5b8235905067ffffffffffffffff811115610dc957610dc8610d8c565b5b602083019150836001820283011115610de557610de4610d91565b5b9250929050565b60008060208385031215610e0357610e02610ca1565b5b600083013567ffffffffffffffff811115610e2157610e20610ca6565b5b610e2d85828601610d96565b92509250509250929050565b600081519050919050565b600082825260208201905092915050565b6000819050602082019050919050565b6000819050919050565b610e7881610e65565b82525050565b600081519050919050565b600082825260208201905092915050565b60005b83811015610eb8578082015181840152602081019050610e9d565b83811115610ec7576000848401525b50505050565b6000601f19601f8301169050919050565b6000610ee982610e7e565b610ef38185610e89565b9350610f03818560208601610e9a565b610f0c81610ecd565b840191505092915050565b610f2081610d09565b82525050565b600061014083016000830151610f3f6000860182610e6f565b506020830151610f526020860182610e6f565b506040830151610f656040860182610e6f565b5060608301518482036060860152610f7d8282610ede565b91505060808301518482036080860152610f978282610ede565b91505060a0830151610fac60a0860182610f17565b5060c0830151610fbf60c0860182610f17565b5060e083015184820360e0860152610fd78282610ede565b915050610100830151848203610100860152610ff38282610ede565b91505061012083015184820361012086015261100f8282610ede565b9150508091505092915050565b60006110288383610f26565b905092915050565b6000602082019050919050565b600061104882610e39565b6110528185610e44565b93508360208202850161106485610e55565b8060005b858110156110a05784840389528151611081858261101c565b945061108c83611030565b925060208a01995050600181019050611068565b50829750879550505050505092915050565b600060208201905081810360008301526110cc818461103d565b905092915050565b6110dd81610e65565b82525050565b60006020820190506110f860008301846110d4565b92915050565b600082825260208201905092915050565b7f53656e6465722061646472657373206d7573742062652076616c696400000000600082015250565b6000611145601c836110fe565b91506111508261110f565b602082019050919050565b6000602082019050818103600083015261117481611138565b9050919050565b82818337600083830152505050565b600061119683856110fe565b93506111a383858461117b565b6111ac83610ecd565b840190509392505050565b600060208201905081810360008301526111d281848661118a565b90509392505050565b7f4e487b7100000000000000000000000000000000000000000000000000000000600052604160045260246000fd5b7f4e487b7100000000000000000000000000000000000000000000000000000000600052601160045260246000fd5b600061124482610e65565b915061124f83610e65565b9250827fffffffffffffffffffffffffffffffffffffffffffffffffffffffffffffffff038211156112845761128361120a565b5b828201905092915050565b7f4e487b7100000000000000000000000000000000000000000000000000000000600052602260045260246000fd5b600060028204905060018216806112d657607f821691505b6020821081036112e9576112e861128f565b5b50919050565b7f4e487b7100000000000000000000000000000000000000000000000000000000600052603260045260246000fd5b600061132982610e65565b91507fffffffffffffffffffffffffffffffffffffffffffffffffffffffffffffffff820361135b5761135a61120a565b5b60018201905091905056fea2646970667358221220cd0b72e3d04a88964728765ffe205688af87d03ba61d9b9c7fa33820143cfe3a64736f6c634300080e0033",
  "immutableReferences": {},
  "source": "pragma solidity ^0.8.7;\r\n\r\nimport \"./ConvertLib.sol\";\r\nimport \"@openzeppelin/contracts/utils/Counters.sol\";\r\n\r\n// This is just a simple example of a coin-like contract.\r\n// It is not standards compatible and cannot be expected to talk to other\r\n// coin/token contracts. If you want to create a standards-compliant\r\n// token, see: https://github.com/ConsenSys/Tokens. Cheers!\r\n\r\ncontract Rides {\r\n\r\n    struct Ride {\r\n    uint id;\r\n    uint cost;\r\n    uint timeActive;\r\n    string date;\r\n    string hour;\r\n    address driver;\r\n    address rider;\r\n    string destination;\r\n    string bids;\r\n    string status;\r\n    }\r\n\r\n    mapping(address => Ride) private rides;\r\n    mapping(uint=> address) private accounts;\r\n\r\n    using Counters for Counters.Counter;\r\n    Counters.Counter private ridesIds;\r\n    event rideCreated(address indexed canditateAddress, string name);\r\n    event Selected(address indexed _driverAddress, address indexed _riderAddress, uint _totalPayed);\r\n\r\n\r\n        function payRide(address payable _receiver, address rideId) public payable {\r\n        _receiver.transfer(msg.value);\r\n        rides[rideId].status = \"closed\";\r\n        rides[rideId].rider = msg.sender;\r\n        emit Selected(_receiver, msg.sender, msg.value);\r\n    }\r\n\r\n    function registerRide(string calldata _name) external {\r\n    require(msg.sender != address(0), \"Sender address must be valid\"); \r\n    ridesIds.increment();\r\n    uint rideId = ridesIds.current();\r\n    address _address = address(msg.sender);\r\n    Ride memory newRide = Ride(rideId, 100, 24, \"May 3rd\", \"10:10:00 AM\", _address,_address, \"bicholandia\", \"\", \"open\");  \r\n    rides[_address] = newRide;  \r\n    accounts[rideId] = msg.sender;\r\n    emit rideCreated(_address, _name);\r\n    }\r\n\r\n    function fetchRides() external  view  returns ( Ride[] memory) {\r\n        uint itemCount = ridesIds.current();\r\n        Ride[] memory ridesArray = new Ride[](itemCount);\r\n            for (uint i = 0; i < itemCount; i++) {\r\n                uint currentId = i + 1;\r\n                Ride memory currentRide = rides[accounts[currentId]];\r\n                ridesArray[i] = currentRide;\r\n            }\r\n            return ridesArray;\r\n        }\r\n}",
  "sourcePath": "C:\\Users\\oscar\\Desktop\\tec-ride\\contracts\\Rides.sol",
  "compiler": {
    "name": "solc",
    "version": "0.8.14+commit.80d49f37.Emscripten.clang"
  },
  "schemaVersion": "3.4.7",
  "updatedAt": "2022-05-29T21:40:48.455Z",
  "networkType": "ethereum",
  "devdoc": {
    "kind": "dev",
    "methods": {},
    "version": 1
  },
  "userdoc": {
    "kind": "user",
    "methods": {},
    "version": 1
  }
}