{
  "contractName": "Rides",
  "abi": [
    {
      "anonymous": false,
      "inputs": [
        {
          "indexed": true,
          "internalType": "address",
          "name": "_driverAddress",
          "type": "address"
        },
        {
          "indexed": true,
          "internalType": "address",
          "name": "_riderAddress",
          "type": "address"
        },
        {
          "indexed": false,
          "internalType": "uint256",
          "name": "_totalPayed",
          "type": "uint256"
        }
      ],
      "name": "Selected",
      "type": "event"
    },
    {
      "anonymous": false,
      "inputs": [
        {
          "indexed": true,
          "internalType": "address",
          "name": "canditateAddress",
          "type": "address"
        },
        {
          "indexed": false,
          "internalType": "address",
          "name": "driver",
          "type": "address"
        },
        {
          "indexed": false,
          "internalType": "string",
          "name": "rider",
          "type": "string"
        }
      ],
      "name": "rideCreated",
      "type": "event"
    },
    {
      "inputs": [
        {
          "internalType": "address payable",
          "name": "_receiver",
          "type": "address"
        },
        {
          "internalType": "address",
          "name": "rideId",
          "type": "address"
        },
        {
          "internalType": "string",
          "name": "rider",
          "type": "string"
        }
      ],
      "name": "payRide",
      "outputs": [],
      "stateMutability": "payable",
      "type": "function",
      "payable": true
    },
    {
      "inputs": [
        {
          "internalType": "uint256",
          "name": "cost",
          "type": "uint256"
        },
        {
          "internalType": "uint256",
          "name": "timeActive",
          "type": "uint256"
        },
        {
          "internalType": "string",
          "name": "date",
          "type": "string"
        },
        {
          "internalType": "string",
          "name": "hour",
          "type": "string"
        },
        {
          "internalType": "string",
          "name": "rider",
          "type": "string"
        },
        {
          "internalType": "string",
          "name": "destination",
          "type": "string"
        }
      ],
      "name": "registerRide",
      "outputs": [],
      "stateMutability": "nonpayable",
      "type": "function"
    },
    {
      "inputs": [],
      "name": "fetchRides",
      "outputs": [
        {
          "components": [
            {
              "internalType": "uint256",
              "name": "cost",
              "type": "uint256"
            },
            {
              "internalType": "uint256",
              "name": "timeActive",
              "type": "uint256"
            },
            {
              "internalType": "string",
              "name": "date",
              "type": "string"
            },
            {
              "internalType": "string",
              "name": "hour",
              "type": "string"
            },
            {
              "internalType": "address",
              "name": "driver",
              "type": "address"
            },
            {
              "internalType": "string",
              "name": "rider",
              "type": "string"
            },
            {
              "internalType": "string",
              "name": "destination",
              "type": "string"
            },
            {
              "internalType": "string",
              "name": "bids",
              "type": "string"
            },
            {
              "internalType": "string",
              "name": "status",
              "type": "string"
            }
          ],
          "internalType": "struct Rides.Ride[]",
          "name": "",
          "type": "tuple[]"
        }
      ],
      "stateMutability": "view",
      "type": "function",
      "constant": true
    },
    {
      "inputs": [],
      "name": "fetchRidesDriver",
      "outputs": [
        {
          "components": [
            {
              "internalType": "uint256",
              "name": "cost",
              "type": "uint256"
            },
            {
              "internalType": "uint256",
              "name": "timeActive",
              "type": "uint256"
            },
            {
              "internalType": "string",
              "name": "date",
              "type": "string"
            },
            {
              "internalType": "string",
              "name": "hour",
              "type": "string"
            },
            {
              "internalType": "address",
              "name": "driver",
              "type": "address"
            },
            {
              "internalType": "string",
              "name": "rider",
              "type": "string"
            },
            {
              "internalType": "string",
              "name": "destination",
              "type": "string"
            },
            {
              "internalType": "string",
              "name": "bids",
              "type": "string"
            },
            {
              "internalType": "string",
              "name": "status",
              "type": "string"
            }
          ],
          "internalType": "struct Rides.Ride[]",
          "name": "",
          "type": "tuple[]"
        }
      ],
      "stateMutability": "view",
      "type": "function",
      "constant": true
    },
    {
      "inputs": [
        {
          "internalType": "string",
          "name": "bids",
          "type": "string"
        },
        {
          "internalType": "address",
          "name": "rideId",
          "type": "address"
        }
      ],
      "name": "makeBid",
      "outputs": [],
      "stateMutability": "nonpayable",
      "type": "function"
    }
  ],
  "bytecode": "0x608060405234801561001057600080fd5b50611bee806100206000396000f3fe60806040526004361061004a5760003560e01c806335549cca1461004f57806360aa141e1461007a578063718acd50146100a357806393fb6d8b146100cc578063d5a9ee1c146100e8575b600080fd5b34801561005b57600080fd5b50610064610113565b60405161007191906115fe565b60405180910390f35b34801561008657600080fd5b506100a1600480360381019061009c91906116bb565b61062b565b005b3480156100af57600080fd5b506100ca60048036038101906100c59190611747565b610681565b005b6100e660048036038101906100e19190611895565b610aba565b005b3480156100f457600080fd5b506100fd610c48565b60405161010a91906115fe565b60405180910390f35b6060600061012160026111b2565b905060008167ffffffffffffffff81111561013f5761013e611909565b5b60405190808252806020026020018201604052801561017857816020015b6101656111d6565b81526020019060019003908161015d5790505b50905060005b828110156106225760006001826101959190611967565b905060008060006001600085815260200190815260200160002060009054906101000a900473ffffffffffffffffffffffffffffffffffffffff1673ffffffffffffffffffffffffffffffffffffffff1673ffffffffffffffffffffffffffffffffffffffff16815260200190815260200160002060405180610120016040529081600082015481526020016001820154815260200160028201805461023a906119ec565b80601f0160208091040260200160405190810160405280929190818152602001828054610266906119ec565b80156102b35780601f10610288576101008083540402835291602001916102b3565b820191906000526020600020905b81548152906001019060200180831161029657829003601f168201915b505050505081526020016003820180546102cc906119ec565b80601f01602080910402602001604051908101604052809291908181526020018280546102f8906119ec565b80156103455780601f1061031a57610100808354040283529160200191610345565b820191906000526020600020905b81548152906001019060200180831161032857829003601f168201915b505050505081526020016004820160009054906101000a900473ffffffffffffffffffffffffffffffffffffffff1673ffffffffffffffffffffffffffffffffffffffff1673ffffffffffffffffffffffffffffffffffffffff1681526020016005820180546103b4906119ec565b80601f01602080910402602001604051908101604052809291908181526020018280546103e0906119ec565b801561042d5780601f106104025761010080835404028352916020019161042d565b820191906000526020600020905b81548152906001019060200180831161041057829003601f168201915b50505050508152602001600682018054610446906119ec565b80601f0160208091040260200160405190810160405280929190818152602001828054610472906119ec565b80156104bf5780601f10610494576101008083540402835291602001916104bf565b820191906000526020600020905b8154815290600101906020018083116104a257829003601f168201915b505050505081526020016007820180546104d8906119ec565b80601f0160208091040260200160405190810160405280929190818152602001828054610504906119ec565b80156105515780601f1061052657610100808354040283529160200191610551565b820191906000526020600020905b81548152906001019060200180831161053457829003601f168201915b5050505050815260200160088201805461056a906119ec565b80601f0160208091040260200160405190810160405280929190818152602001828054610596906119ec565b80156105e35780601f106105b8576101008083540402835291602001916105e3565b820191906000526020600020905b8154815290600101906020018083116105c657829003601f168201915b50505050508152505090508084848151811061060257610601611a1d565b5b60200260200101819052505050808061061a90611a4c565b91505061017e565b50809250505090565b82826000808473ffffffffffffffffffffffffffffffffffffffff1673ffffffffffffffffffffffffffffffffffffffff168152602001908152602001600020600701919061067b929190611238565b50505050565b600073ffffffffffffffffffffffffffffffffffffffff163373ffffffffffffffffffffffffffffffffffffffff16036106f0576040517f08c379a00000000000000000000000000000000000000000000000000000000081526004016106e790611af1565b60405180910390fd5b6106fa60026111c0565b600061070660026111b2565b9050600033905060006040518061012001604052808e81526020018d81526020018c8c8080601f016020809104026020016040519081016040528093929190818152602001838380828437600081840152601f19601f8201169050808301925050505050505081526020018a8a8080601f016020809104026020016040519081016040528093929190818152602001838380828437600081840152601f19601f8201169050808301925050505050505081526020013373ffffffffffffffffffffffffffffffffffffffff16815260200188888080601f016020809104026020016040519081016040528093929190818152602001838380828437600081840152601f19601f82011690508083019250505050505050815260200186868080601f016020809104026020016040519081016040528093929190818152602001838380828437600081840152601f19601f8201169050808301925050505050505081526020016040518060200160405280600081525081526020016040518060400160405280600481526020017f6f70656e000000000000000000000000000000000000000000000000000000008152508152509050806000808473ffffffffffffffffffffffffffffffffffffffff1673ffffffffffffffffffffffffffffffffffffffff1681526020019081526020016000206000820151816000015560208201518160010155604082015181600201908051906020019061092a9291906112be565b5060608201518160030190805190602001906109479291906112be565b5060808201518160040160006101000a81548173ffffffffffffffffffffffffffffffffffffffff021916908373ffffffffffffffffffffffffffffffffffffffff16021790555060a08201518160050190805190602001906109ab9291906112be565b5060c08201518160060190805190602001906109c89291906112be565b5060e08201518160070190805190602001906109e59291906112be565b50610100820151816008019080519060200190610a039291906112be565b50905050336001600085815260200190815260200160002060006101000a81548173ffffffffffffffffffffffffffffffffffffffff021916908373ffffffffffffffffffffffffffffffffffffffff1602179055508173ffffffffffffffffffffffffffffffffffffffff167f58f6279d26a4574c67ef3a733e897c5f241843e348753e998bab35156d0757ac338989604051610aa393929190611b5c565b60405180910390a250505050505050505050505050565b8373ffffffffffffffffffffffffffffffffffffffff166108fc349081150290604051600060405180830381858888f19350505050158015610b00573d6000803e3d6000fd5b506040518060400160405280600681526020017f636c6f73656400000000000000000000000000000000000000000000000000008152506000808573ffffffffffffffffffffffffffffffffffffffff1673ffffffffffffffffffffffffffffffffffffffff1681526020019081526020016000206008019080519060200190610b8b9291906112be565b5081816000808673ffffffffffffffffffffffffffffffffffffffff1673ffffffffffffffffffffffffffffffffffffffff1681526020019081526020016000206005019190610bdc929190611238565b503373ffffffffffffffffffffffffffffffffffffffff168473ffffffffffffffffffffffffffffffffffffffff167f15f05f057a35abd62deb8575f0b4d8b6a1b44039770848e6ba334b012d04b70634604051610c3a9190611b9d565b60405180910390a350505050565b60606000610c5660026111b2565b905060008167ffffffffffffffff811115610c7457610c73611909565b5b604051908082528060200260200182016040528015610cad57816020015b610c9a6111d6565b815260200190600190039081610c925790505b50905060005b828110156111a9573373ffffffffffffffffffffffffffffffffffffffff16828281518110610ce557610ce4611a1d565b5b60200260200101516080015173ffffffffffffffffffffffffffffffffffffffff1603611196576000600182610d1b9190611967565b905060008060006001600085815260200190815260200160002060009054906101000a900473ffffffffffffffffffffffffffffffffffffffff1673ffffffffffffffffffffffffffffffffffffffff1673ffffffffffffffffffffffffffffffffffffffff168152602001908152602001600020604051806101200160405290816000820154815260200160018201548152602001600282018054610dc0906119ec565b80601f0160208091040260200160405190810160405280929190818152602001828054610dec906119ec565b8015610e395780601f10610e0e57610100808354040283529160200191610e39565b820191906000526020600020905b815481529060010190602001808311610e1c57829003601f168201915b50505050508152602001600382018054610e52906119ec565b80601f0160208091040260200160405190810160405280929190818152602001828054610e7e906119ec565b8015610ecb5780601f10610ea057610100808354040283529160200191610ecb565b820191906000526020600020905b815481529060010190602001808311610eae57829003601f168201915b505050505081526020016004820160009054906101000a900473ffffffffffffffffffffffffffffffffffffffff1673ffffffffffffffffffffffffffffffffffffffff1673ffffffffffffffffffffffffffffffffffffffff168152602001600582018054610f3a906119ec565b80601f0160208091040260200160405190810160405280929190818152602001828054610f66906119ec565b8015610fb35780601f10610f8857610100808354040283529160200191610fb3565b820191906000526020600020905b815481529060010190602001808311610f9657829003601f168201915b50505050508152602001600682018054610fcc906119ec565b80601f0160208091040260200160405190810160405280929190818152602001828054610ff8906119ec565b80156110455780601f1061101a57610100808354040283529160200191611045565b820191906000526020600020905b81548152906001019060200180831161102857829003601f168201915b5050505050815260200160078201805461105e906119ec565b80601f016020809104026020016040519081016040528092919081815260200182805461108a906119ec565b80156110d75780601f106110ac576101008083540402835291602001916110d7565b820191906000526020600020905b8154815290600101906020018083116110ba57829003601f168201915b505050505081526020016008820180546110f0906119ec565b80601f016020809104026020016040519081016040528092919081815260200182805461111c906119ec565b80156111695780601f1061113e57610100808354040283529160200191611169565b820191906000526020600020905b81548152906001019060200180831161114c57829003601f168201915b50505050508152505090508084848151811061118857611187611a1d565b5b602002602001018190525050505b80806111a190611a4c565b915050610cb3565b50809250505090565b600081600001549050919050565b6001816000016000828254019250508190555050565b60405180610120016040528060008152602001600081526020016060815260200160608152602001600073ffffffffffffffffffffffffffffffffffffffff168152602001606081526020016060815260200160608152602001606081525090565b828054611244906119ec565b90600052602060002090601f01602090048101928261126657600085556112ad565b82601f1061127f57803560ff19168380011785556112ad565b828001600101855582156112ad579182015b828111156112ac578235825591602001919060010190611291565b5b5090506112ba9190611344565b5090565b8280546112ca906119ec565b90600052602060002090601f0160209004810192826112ec5760008555611333565b82601f1061130557805160ff1916838001178555611333565b82800160010185558215611333579182015b82811115611332578251825591602001919060010190611317565b5b5090506113409190611344565b5090565b5b8082111561135d576000816000905550600101611345565b5090565b600081519050919050565b600082825260208201905092915050565b6000819050602082019050919050565b6000819050919050565b6113a08161138d565b82525050565b600081519050919050565b600082825260208201905092915050565b60005b838110156113e05780820151818401526020810190506113c5565b838111156113ef576000848401525b50505050565b6000601f19601f8301169050919050565b6000611411826113a6565b61141b81856113b1565b935061142b8185602086016113c2565b611434816113f5565b840191505092915050565b600073ffffffffffffffffffffffffffffffffffffffff82169050919050565b600061146a8261143f565b9050919050565b61147a8161145f565b82525050565b6000610120830160008301516114996000860182611397565b5060208301516114ac6020860182611397565b50604083015184820360408601526114c48282611406565b915050606083015184820360608601526114de8282611406565b91505060808301516114f36080860182611471565b5060a083015184820360a086015261150b8282611406565b91505060c083015184820360c08601526115258282611406565b91505060e083015184820360e086015261153f8282611406565b91505061010083015184820361010086015261155b8282611406565b9150508091505092915050565b60006115748383611480565b905092915050565b6000602082019050919050565b600061159482611361565b61159e818561136c565b9350836020820285016115b08561137d565b8060005b858110156115ec57848403895281516115cd8582611568565b94506115d88361157c565b925060208a019950506001810190506115b4565b50829750879550505050505092915050565b600060208201905081810360008301526116188184611589565b905092915050565b600080fd5b600080fd5b600080fd5b600080fd5b600080fd5b60008083601f84011261164f5761164e61162a565b5b8235905067ffffffffffffffff81111561166c5761166b61162f565b5b60208301915083600182028301111561168857611687611634565b5b9250929050565b6116988161145f565b81146116a357600080fd5b50565b6000813590506116b58161168f565b92915050565b6000806000604084860312156116d4576116d3611620565b5b600084013567ffffffffffffffff8111156116f2576116f1611625565b5b6116fe86828701611639565b93509350506020611711868287016116a6565b9150509250925092565b6117248161138d565b811461172f57600080fd5b50565b6000813590506117418161171b565b92915050565b60008060008060008060008060008060c08b8d03121561176a57611769611620565b5b60006117788d828e01611732565b9a505060206117898d828e01611732565b99505060408b013567ffffffffffffffff8111156117aa576117a9611625565b5b6117b68d828e01611639565b985098505060608b013567ffffffffffffffff8111156117d9576117d8611625565b5b6117e58d828e01611639565b965096505060808b013567ffffffffffffffff81111561180857611807611625565b5b6118148d828e01611639565b945094505060a08b013567ffffffffffffffff81111561183757611836611625565b5b6118438d828e01611639565b92509250509295989b9194979a5092959850565b60006118628261143f565b9050919050565b61187281611857565b811461187d57600080fd5b50565b60008135905061188f81611869565b92915050565b600080600080606085870312156118af576118ae611620565b5b60006118bd87828801611880565b94505060206118ce878288016116a6565b935050604085013567ffffffffffffffff8111156118ef576118ee611625565b5b6118fb87828801611639565b925092505092959194509250565b7f4e487b7100000000000000000000000000000000000000000000000000000000600052604160045260246000fd5b7f4e487b7100000000000000000000000000000000000000000000000000000000600052601160045260246000fd5b60006119728261138d565b915061197d8361138d565b9250827fffffffffffffffffffffffffffffffffffffffffffffffffffffffffffffffff038211156119b2576119b1611938565b5b828201905092915050565b7f4e487b7100000000000000000000000000000000000000000000000000000000600052602260045260246000fd5b60006002820490506001821680611a0457607f821691505b602082108103611a1757611a166119bd565b5b50919050565b7f4e487b7100000000000000000000000000000000000000000000000000000000600052603260045260246000fd5b6000611a578261138d565b91507fffffffffffffffffffffffffffffffffffffffffffffffffffffffffffffffff8203611a8957611a88611938565b5b600182019050919050565b600082825260208201905092915050565b7f53656e6465722061646472657373206d7573742062652076616c696400000000600082015250565b6000611adb601c83611a94565b9150611ae682611aa5565b602082019050919050565b60006020820190508181036000830152611b0a81611ace565b9050919050565b611b1a8161145f565b82525050565b82818337600083830152505050565b6000611b3b8385611a94565b9350611b48838584611b20565b611b51836113f5565b840190509392505050565b6000604082019050611b716000830186611b11565b8181036020830152611b84818486611b2f565b9050949350505050565b611b978161138d565b82525050565b6000602082019050611bb26000830184611b8e565b9291505056fea26469706673582212201614c2b332c2868384739e5e74cd9ddd846e1d1a4707ada483fc03a27fb2a93d64736f6c634300080e0033",
  "immutableReferences": {},
  "source": "pragma solidity ^0.8.7;\r\n\r\nimport \"./ConvertLib.sol\";\r\nimport \"@openzeppelin/contracts/utils/Counters.sol\";\r\n\r\n// This is just a simple example of a coin-like contract.\r\n// It is not standards compatible and cannot be expected to talk to other\r\n// coin/token contracts. If you want to create a standards-compliant\r\n// token, see: https://github.com/ConsenSys/Tokens. Cheers!\r\n\r\ncontract Rides {\r\n\r\n\r\n    struct Ride {\r\n    uint cost;\r\n    uint timeActive;\r\n    string date;\r\n    string hour;\r\n    address driver;\r\n    string rider;\r\n    string destination;\r\n    string bids;\r\n    string status;\r\n    }\r\n\r\n    mapping(address => Ride) private rides;\r\n    mapping(uint=> address) private accounts;\r\n\r\n    using Counters for Counters.Counter;\r\n    Counters.Counter private ridesIds;\r\n    event rideCreated(address indexed canditateAddress, address driver, string rider);\r\n    event Selected(address indexed _driverAddress, address indexed _riderAddress, uint _totalPayed);\r\n\r\n\r\n        function payRide(address payable _receiver, address rideId, string calldata rider) public payable {\r\n        _receiver.transfer(msg.value);\r\n        rides[rideId].status = \"closed\";\r\n        rides[rideId].rider = rider;\r\n        emit Selected(_receiver, msg.sender, msg.value);\r\n    }\r\n\r\n    function registerRide(\r\n        uint cost,\r\n        uint timeActive,\r\n        string calldata date,\r\n        string calldata hour,\r\n        string calldata rider,\r\n        string calldata destination\r\n        ) external {\r\n    require(msg.sender != address(0), \"Sender address must be valid\"); \r\n    ridesIds.increment();\r\n    uint rideId = ridesIds.current();\r\n    address _address = address(msg.sender);\r\n    Ride memory newRide = Ride(cost, timeActive, date, hour, msg.sender, rider, destination, \"\" , \"open\");  \r\n    rides[_address] = newRide;  \r\n    accounts[rideId] = msg.sender;\r\n    emit rideCreated(_address, msg.sender, rider);\r\n    }\r\n\r\n    function fetchRides() external  view  returns ( Ride[] memory) {\r\n        uint itemCount = ridesIds.current();\r\n        Ride[] memory ridesArray = new Ride[](itemCount);\r\n            for (uint i = 0; i < itemCount; i++) {\r\n                uint currentId = i + 1;\r\n                Ride memory currentRide = rides[accounts[currentId]];\r\n                ridesArray[i] = currentRide;\r\n            }\r\n            return ridesArray;\r\n        }\r\n\r\n    function fetchRidesDriver()external view returns (Ride[] memory) {\r\n        uint itemCount = ridesIds.current();\r\n        Ride[] memory ridesArray = new Ride[](itemCount);\r\n            for (uint i = 0; i < itemCount; i++) {\r\n                if (ridesArray[i].driver == msg.sender){\r\n                uint currentId = i + 1;\r\n                Ride memory currentRide = rides[accounts[currentId]];\r\n                \r\n                    ridesArray[i] = currentRide;\r\n                }\r\n                \r\n            }\r\n            return ridesArray;        \r\n    }\r\n\r\n    function makeBid(string calldata bids , address rideId) public {\r\n        rides[rideId].bids = bids;\r\n\r\n    }\r\n}",
  "sourcePath": "C:\\Users\\oscar\\Desktop\\tec-ride\\contracts\\Rides.sol",
  "compiler": {
    "name": "solc",
    "version": "0.8.14+commit.80d49f37.Emscripten.clang"
  },
  "schemaVersion": "3.4.7",
  "updatedAt": "2022-06-02T18:26:36.029Z",
  "networkType": "ethereum",
  "devdoc": {
    "kind": "dev",
    "methods": {},
    "version": 1
  },
  "userdoc": {
    "kind": "user",
    "methods": {},
    "version": 1
  }
}