{
  "contractName": "Rides",
  "abi": [
    {
      "anonymous": false,
      "inputs": [
        {
          "indexed": true,
          "internalType": "address",
          "name": "_driverAddress",
          "type": "address"
        },
        {
          "indexed": true,
          "internalType": "address",
          "name": "_riderAddress",
          "type": "address"
        },
        {
          "indexed": false,
          "internalType": "uint256",
          "name": "_totalPayed",
          "type": "uint256"
        }
      ],
      "name": "Selected",
      "type": "event"
    },
    {
      "anonymous": false,
      "inputs": [
        {
          "indexed": true,
          "internalType": "address",
          "name": "canditateAddress",
          "type": "address"
        },
        {
          "indexed": false,
          "internalType": "address",
          "name": "driver",
          "type": "address"
        },
        {
          "indexed": false,
          "internalType": "string",
          "name": "rider",
          "type": "string"
        }
      ],
      "name": "rideCreated",
      "type": "event"
    },
    {
      "inputs": [
        {
          "internalType": "address payable",
          "name": "_receiver",
          "type": "address"
        }
      ],
      "name": "payRide",
      "outputs": [],
      "stateMutability": "payable",
      "type": "function",
      "payable": true
    },
    {
      "inputs": [
        {
          "internalType": "uint256",
          "name": "cost",
          "type": "uint256"
        },
        {
          "internalType": "uint256",
          "name": "timeActive",
          "type": "uint256"
        },
        {
          "internalType": "string",
          "name": "date",
          "type": "string"
        },
        {
          "internalType": "string",
          "name": "hour",
          "type": "string"
        },
        {
          "internalType": "string",
          "name": "rider",
          "type": "string"
        },
        {
          "internalType": "string",
          "name": "destination",
          "type": "string"
        }
      ],
      "name": "registerRide",
      "outputs": [],
      "stateMutability": "nonpayable",
      "type": "function"
    },
    {
      "inputs": [],
      "name": "fetchRides",
      "outputs": [
        {
          "components": [
            {
              "internalType": "uint256",
              "name": "id",
              "type": "uint256"
            },
            {
              "internalType": "uint256",
              "name": "cost",
              "type": "uint256"
            },
            {
              "internalType": "uint256",
              "name": "timeActive",
              "type": "uint256"
            },
            {
              "internalType": "string",
              "name": "date",
              "type": "string"
            },
            {
              "internalType": "string",
              "name": "hour",
              "type": "string"
            },
            {
              "internalType": "address",
              "name": "driver",
              "type": "address"
            },
            {
              "internalType": "string",
              "name": "rider",
              "type": "string"
            },
            {
              "internalType": "string",
              "name": "destination",
              "type": "string"
            },
            {
              "internalType": "string",
              "name": "bids",
              "type": "string"
            },
            {
              "internalType": "string",
              "name": "status",
              "type": "string"
            }
          ],
          "internalType": "struct Rides.Ride[]",
          "name": "",
          "type": "tuple[]"
        }
      ],
      "stateMutability": "view",
      "type": "function",
      "constant": true
    },
    {
      "inputs": [],
      "name": "fetchRidesDriver",
      "outputs": [
        {
          "components": [
            {
              "internalType": "uint256",
              "name": "id",
              "type": "uint256"
            },
            {
              "internalType": "uint256",
              "name": "cost",
              "type": "uint256"
            },
            {
              "internalType": "uint256",
              "name": "timeActive",
              "type": "uint256"
            },
            {
              "internalType": "string",
              "name": "date",
              "type": "string"
            },
            {
              "internalType": "string",
              "name": "hour",
              "type": "string"
            },
            {
              "internalType": "address",
              "name": "driver",
              "type": "address"
            },
            {
              "internalType": "string",
              "name": "rider",
              "type": "string"
            },
            {
              "internalType": "string",
              "name": "destination",
              "type": "string"
            },
            {
              "internalType": "string",
              "name": "bids",
              "type": "string"
            },
            {
              "internalType": "string",
              "name": "status",
              "type": "string"
            }
          ],
          "internalType": "struct Rides.Ride[]",
          "name": "",
          "type": "tuple[]"
        }
      ],
      "stateMutability": "view",
      "type": "function",
      "constant": true
    },
    {
      "inputs": [
        {
          "internalType": "string",
          "name": "bids",
          "type": "string"
        },
        {
          "internalType": "address",
          "name": "rideId",
          "type": "address"
        }
      ],
      "name": "makeBid",
      "outputs": [],
      "stateMutability": "nonpayable",
      "type": "function"
    }
  ],
  "bytecode": "0x608060405234801561001057600080fd5b50611c62806100206000396000f3fe60806040526004361061004a5760003560e01c80631887ff431461004f57806335549cca1461006b57806360aa141e14610096578063718acd50146100bf578063d5a9ee1c146100e8575b600080fd5b61006960048036038101906100649190611369565b610113565b005b34801561007757600080fd5b506100806101c2565b60405161008d9190611628565b60405180910390f35b3480156100a257600080fd5b506100bd60048036038101906100b891906116db565b6106e4565b005b3480156100cb57600080fd5b506100e660048036038101906100e19190611767565b61073a565b005b3480156100f457600080fd5b506100fd610b94565b60405161010a9190611628565b60405180910390f35b8073ffffffffffffffffffffffffffffffffffffffff166108fc349081150290604051600060405180830381858888f19350505050158015610159573d6000803e3d6000fd5b503373ffffffffffffffffffffffffffffffffffffffff168173ffffffffffffffffffffffffffffffffffffffff167f15f05f057a35abd62deb8575f0b4d8b6a1b44039770848e6ba334b012d04b706346040516101b79190611886565b60405180910390a350565b606060006101d06002611108565b905060008167ffffffffffffffff8111156101ee576101ed6118a1565b5b60405190808252806020026020018201604052801561022757816020015b61021461116f565b81526020019060019003908161020c5790505b50905060005b828110156106db57600060018261024491906118ff565b905060008060006001600085815260200190815260200160002060009054906101000a900473ffffffffffffffffffffffffffffffffffffffff1673ffffffffffffffffffffffffffffffffffffffff1673ffffffffffffffffffffffffffffffffffffffff168152602001908152602001600020604051806101400160405290816000820154815260200160018201548152602001600282015481526020016003820180546102f390611984565b80601f016020809104026020016040519081016040528092919081815260200182805461031f90611984565b801561036c5780601f106103415761010080835404028352916020019161036c565b820191906000526020600020905b81548152906001019060200180831161034f57829003601f168201915b5050505050815260200160048201805461038590611984565b80601f01602080910402602001604051908101604052809291908181526020018280546103b190611984565b80156103fe5780601f106103d3576101008083540402835291602001916103fe565b820191906000526020600020905b8154815290600101906020018083116103e157829003601f168201915b505050505081526020016005820160009054906101000a900473ffffffffffffffffffffffffffffffffffffffff1673ffffffffffffffffffffffffffffffffffffffff1673ffffffffffffffffffffffffffffffffffffffff16815260200160068201805461046d90611984565b80601f016020809104026020016040519081016040528092919081815260200182805461049990611984565b80156104e65780601f106104bb576101008083540402835291602001916104e6565b820191906000526020600020905b8154815290600101906020018083116104c957829003601f168201915b505050505081526020016007820180546104ff90611984565b80601f016020809104026020016040519081016040528092919081815260200182805461052b90611984565b80156105785780601f1061054d57610100808354040283529160200191610578565b820191906000526020600020905b81548152906001019060200180831161055b57829003601f168201915b5050505050815260200160088201805461059190611984565b80601f01602080910402602001604051908101604052809291908181526020018280546105bd90611984565b801561060a5780601f106105df5761010080835404028352916020019161060a565b820191906000526020600020905b8154815290600101906020018083116105ed57829003601f168201915b5050505050815260200160098201805461062390611984565b80601f016020809104026020016040519081016040528092919081815260200182805461064f90611984565b801561069c5780601f106106715761010080835404028352916020019161069c565b820191906000526020600020905b81548152906001019060200180831161067f57829003601f168201915b5050505050815250509050808484815181106106bb576106ba6119b5565b5b6020026020010181905250505080806106d3906119e4565b91505061022d565b50809250505090565b82826000808473ffffffffffffffffffffffffffffffffffffffff1673ffffffffffffffffffffffffffffffffffffffff16815260200190815260200160002060080191906107349291906111d8565b50505050565b600073ffffffffffffffffffffffffffffffffffffffff163373ffffffffffffffffffffffffffffffffffffffff16036107a9576040517f08c379a00000000000000000000000000000000000000000000000000000000081526004016107a090611a89565b60405180910390fd5b6107b36002611116565b60006107bf6002611108565b9050600033905060006107d360643361112c565b905060006040518061014001604052808381526020018f81526020018e81526020018d8d8080601f016020809104026020016040519081016040528093929190818152602001838380828437600081840152601f19601f8201169050808301925050505050505081526020018b8b8080601f016020809104026020016040519081016040528093929190818152602001838380828437600081840152601f19601f8201169050808301925050505050505081526020013373ffffffffffffffffffffffffffffffffffffffff16815260200189898080601f016020809104026020016040519081016040528093929190818152602001838380828437600081840152601f19601f82011690508083019250505050505050815260200187878080601f016020809104026020016040519081016040528093929190818152602001838380828437600081840152601f19601f8201169050808301925050505050505081526020016040518060200160405280600081525081526020016040518060400160405280600481526020017f6f70656e000000000000000000000000000000000000000000000000000000008152508152509050806000808573ffffffffffffffffffffffffffffffffffffffff1673ffffffffffffffffffffffffffffffffffffffff1681526020019081526020016000206000820151816000015560208201518160010155604082015181600201556060820151816003019080519060200190610a0292919061125e565b506080820151816004019080519060200190610a1f92919061125e565b5060a08201518160050160006101000a81548173ffffffffffffffffffffffffffffffffffffffff021916908373ffffffffffffffffffffffffffffffffffffffff16021790555060c0820151816006019080519060200190610a8392919061125e565b5060e0820151816007019080519060200190610aa092919061125e565b50610100820151816008019080519060200190610abe92919061125e565b50610120820151816009019080519060200190610adc92919061125e565b50905050336001600086815260200190815260200160002060006101000a81548173ffffffffffffffffffffffffffffffffffffffff021916908373ffffffffffffffffffffffffffffffffffffffff1602179055508273ffffffffffffffffffffffffffffffffffffffff167f58f6279d26a4574c67ef3a733e897c5f241843e348753e998bab35156d0757ac338a8a604051610b7c93929190611af4565b60405180910390a25050505050505050505050505050565b60606000610ba26002611108565b905060008167ffffffffffffffff811115610bc057610bbf6118a1565b5b604051908082528060200260200182016040528015610bf957816020015b610be661116f565b815260200190600190039081610bde5790505b50905060005b828110156110ff573373ffffffffffffffffffffffffffffffffffffffff16828281518110610c3157610c306119b5565b5b602002602001015160a0015173ffffffffffffffffffffffffffffffffffffffff16036110ec576000600182610c6791906118ff565b905060008060006001600085815260200190815260200160002060009054906101000a900473ffffffffffffffffffffffffffffffffffffffff1673ffffffffffffffffffffffffffffffffffffffff1673ffffffffffffffffffffffffffffffffffffffff16815260200190815260200160002060405180610140016040529081600082015481526020016001820154815260200160028201548152602001600382018054610d1690611984565b80601f0160208091040260200160405190810160405280929190818152602001828054610d4290611984565b8015610d8f5780601f10610d6457610100808354040283529160200191610d8f565b820191906000526020600020905b815481529060010190602001808311610d7257829003601f168201915b50505050508152602001600482018054610da890611984565b80601f0160208091040260200160405190810160405280929190818152602001828054610dd490611984565b8015610e215780601f10610df657610100808354040283529160200191610e21565b820191906000526020600020905b815481529060010190602001808311610e0457829003601f168201915b505050505081526020016005820160009054906101000a900473ffffffffffffffffffffffffffffffffffffffff1673ffffffffffffffffffffffffffffffffffffffff1673ffffffffffffffffffffffffffffffffffffffff168152602001600682018054610e9090611984565b80601f0160208091040260200160405190810160405280929190818152602001828054610ebc90611984565b8015610f095780601f10610ede57610100808354040283529160200191610f09565b820191906000526020600020905b815481529060010190602001808311610eec57829003601f168201915b50505050508152602001600782018054610f2290611984565b80601f0160208091040260200160405190810160405280929190818152602001828054610f4e90611984565b8015610f9b5780601f10610f7057610100808354040283529160200191610f9b565b820191906000526020600020905b815481529060010190602001808311610f7e57829003601f168201915b50505050508152602001600882018054610fb490611984565b80601f0160208091040260200160405190810160405280929190818152602001828054610fe090611984565b801561102d5780601f106110025761010080835404028352916020019161102d565b820191906000526020600020905b81548152906001019060200180831161101057829003601f168201915b5050505050815260200160098201805461104690611984565b80601f016020809104026020016040519081016040528092919081815260200182805461107290611984565b80156110bf5780601f10611094576101008083540402835291602001916110bf565b820191906000526020600020905b8154815290600101906020018083116110a257829003601f168201915b5050505050815250509050808484815181106110de576110dd6119b5565b5b602002602001018190525050505b80806110f7906119e4565b915050610bff565b50809250505090565b600081600001549050919050565b6001816000016000828254019250508190555050565b60008242448460405160200161114493929190611b8f565b6040516020818303038152906040528051906020012060001c6111679190611bfb565b905092915050565b6040518061014001604052806000815260200160008152602001600081526020016060815260200160608152602001600073ffffffffffffffffffffffffffffffffffffffff168152602001606081526020016060815260200160608152602001606081525090565b8280546111e490611984565b90600052602060002090601f016020900481019282611206576000855561124d565b82601f1061121f57803560ff191683800117855561124d565b8280016001018555821561124d579182015b8281111561124c578235825591602001919060010190611231565b5b50905061125a91906112e4565b5090565b82805461126a90611984565b90600052602060002090601f01602090048101928261128c57600085556112d3565b82601f106112a557805160ff19168380011785556112d3565b828001600101855582156112d3579182015b828111156112d25782518255916020019190600101906112b7565b5b5090506112e091906112e4565b5090565b5b808211156112fd5760008160009055506001016112e5565b5090565b600080fd5b600080fd5b600073ffffffffffffffffffffffffffffffffffffffff82169050919050565b60006113368261130b565b9050919050565b6113468161132b565b811461135157600080fd5b50565b6000813590506113638161133d565b92915050565b60006020828403121561137f5761137e611301565b5b600061138d84828501611354565b91505092915050565b600081519050919050565b600082825260208201905092915050565b6000819050602082019050919050565b6000819050919050565b6113d5816113c2565b82525050565b600081519050919050565b600082825260208201905092915050565b60005b838110156114155780820151818401526020810190506113fa565b83811115611424576000848401525b50505050565b6000601f19601f8301169050919050565b6000611446826113db565b61145081856113e6565b93506114608185602086016113f7565b6114698161142a565b840191505092915050565b600061147f8261130b565b9050919050565b61148f81611474565b82525050565b6000610140830160008301516114ae60008601826113cc565b5060208301516114c160208601826113cc565b5060408301516114d460408601826113cc565b50606083015184820360608601526114ec828261143b565b91505060808301518482036080860152611506828261143b565b91505060a083015161151b60a0860182611486565b5060c083015184820360c0860152611533828261143b565b91505060e083015184820360e086015261154d828261143b565b915050610100830151848203610100860152611569828261143b565b915050610120830151848203610120860152611585828261143b565b9150508091505092915050565b600061159e8383611495565b905092915050565b6000602082019050919050565b60006115be82611396565b6115c881856113a1565b9350836020820285016115da856113b2565b8060005b8581101561161657848403895281516115f78582611592565b9450611602836115a6565b925060208a019950506001810190506115de565b50829750879550505050505092915050565b6000602082019050818103600083015261164281846115b3565b905092915050565b600080fd5b600080fd5b600080fd5b60008083601f84011261166f5761166e61164a565b5b8235905067ffffffffffffffff81111561168c5761168b61164f565b5b6020830191508360018202830111156116a8576116a7611654565b5b9250929050565b6116b881611474565b81146116c357600080fd5b50565b6000813590506116d5816116af565b92915050565b6000806000604084860312156116f4576116f3611301565b5b600084013567ffffffffffffffff81111561171257611711611306565b5b61171e86828701611659565b93509350506020611731868287016116c6565b9150509250925092565b611744816113c2565b811461174f57600080fd5b50565b6000813590506117618161173b565b92915050565b60008060008060008060008060008060c08b8d03121561178a57611789611301565b5b60006117988d828e01611752565b9a505060206117a98d828e01611752565b99505060408b013567ffffffffffffffff8111156117ca576117c9611306565b5b6117d68d828e01611659565b985098505060608b013567ffffffffffffffff8111156117f9576117f8611306565b5b6118058d828e01611659565b965096505060808b013567ffffffffffffffff81111561182857611827611306565b5b6118348d828e01611659565b945094505060a08b013567ffffffffffffffff81111561185757611856611306565b5b6118638d828e01611659565b92509250509295989b9194979a5092959850565b611880816113c2565b82525050565b600060208201905061189b6000830184611877565b92915050565b7f4e487b7100000000000000000000000000000000000000000000000000000000600052604160045260246000fd5b7f4e487b7100000000000000000000000000000000000000000000000000000000600052601160045260246000fd5b600061190a826113c2565b9150611915836113c2565b9250827fffffffffffffffffffffffffffffffffffffffffffffffffffffffffffffffff0382111561194a576119496118d0565b5b828201905092915050565b7f4e487b7100000000000000000000000000000000000000000000000000000000600052602260045260246000fd5b6000600282049050600182168061199c57607f821691505b6020821081036119af576119ae611955565b5b50919050565b7f4e487b7100000000000000000000000000000000000000000000000000000000600052603260045260246000fd5b60006119ef826113c2565b91507fffffffffffffffffffffffffffffffffffffffffffffffffffffffffffffffff8203611a2157611a206118d0565b5b600182019050919050565b600082825260208201905092915050565b7f53656e6465722061646472657373206d7573742062652076616c696400000000600082015250565b6000611a73601c83611a2c565b9150611a7e82611a3d565b602082019050919050565b60006020820190508181036000830152611aa281611a66565b9050919050565b611ab281611474565b82525050565b82818337600083830152505050565b6000611ad38385611a2c565b9350611ae0838584611ab8565b611ae98361142a565b840190509392505050565b6000604082019050611b096000830186611aa9565b8181036020830152611b1c818486611ac7565b9050949350505050565b6000819050919050565b611b41611b3c826113c2565b611b26565b82525050565b60008160601b9050919050565b6000611b5f82611b47565b9050919050565b6000611b7182611b54565b9050919050565b611b89611b8482611474565b611b66565b82525050565b6000611b9b8286611b30565b602082019150611bab8285611b30565b602082019150611bbb8284611b78565b601482019150819050949350505050565b7f4e487b7100000000000000000000000000000000000000000000000000000000600052601260045260246000fd5b6000611c06826113c2565b9150611c11836113c2565b925082611c2157611c20611bcc565b5b82820690509291505056fea26469706673582212203abe52c3e643d5d0f21ef30c3432a1909e16e8d96a159be0af69571f48cacc5464736f6c634300080e0033",
  "immutableReferences": {},
  "source": "pragma solidity ^0.8.7;\r\n\r\nimport \"./ConvertLib.sol\";\r\nimport \"@openzeppelin/contracts/utils/Counters.sol\";\r\n\r\n// This is just a simple example of a coin-like contract.\r\n// It is not standards compatible and cannot be expected to talk to other\r\n// coin/token contracts. If you want to create a standards-compliant\r\n// token, see: https://github.com/ConsenSys/Tokens. Cheers!\r\n\r\ncontract Rides {\r\n\r\n\r\n    struct Ride {\r\n    uint id;\r\n    uint cost;\r\n    uint timeActive;\r\n    string date;\r\n    string hour;\r\n    address driver;\r\n    string rider;\r\n    string destination;\r\n    string bids;\r\n    string status;\r\n    }\r\n\r\n    mapping(address => Ride) private rides;\r\n    mapping(uint=> address) private accounts;\r\n\r\n    using Counters for Counters.Counter;\r\n    Counters.Counter private ridesIds;\r\n    event rideCreated(address indexed canditateAddress, address driver, string rider);\r\n    event Selected(address indexed _driverAddress, address indexed _riderAddress, uint _totalPayed);\r\n\r\n\r\n        function payRide(address payable _receiver) public payable {\r\n        _receiver.transfer(msg.value);\r\n        //rides[rideId].status = \"closed\";\r\n        //rides[rideId].rider = rider;\r\n        emit Selected(_receiver, msg.sender, msg.value);\r\n    }\r\n\r\n    function random(uint number , address sender) private view returns(uint){\r\n        return uint(keccak256(abi.encodePacked(block.timestamp,block.difficulty,  \r\n       sender))) % number;\r\n    }\r\n\r\n    function registerRide(\r\n        uint cost,\r\n        uint timeActive,\r\n        string calldata date,\r\n        string calldata hour,\r\n        string calldata rider,\r\n        string calldata destination\r\n        ) external {\r\n    require(msg.sender != address(0), \"Sender address must be valid\"); \r\n    ridesIds.increment();\r\n    uint rideId = ridesIds.current();\r\n    address _address = address(msg.sender);\r\n    uint generate_id = random(100, msg.sender);\r\n    Ride memory newRide = Ride(generate_id ,cost, timeActive, date, hour, msg.sender, rider, destination, \"\" , \"open\");  \r\n    rides[_address] = newRide;  \r\n    accounts[rideId] = msg.sender;\r\n    emit rideCreated(_address, msg.sender, rider);\r\n    }\r\n\r\n    function fetchRides() external  view  returns ( Ride[] memory) {\r\n        uint itemCount = ridesIds.current();\r\n        Ride[] memory ridesArray = new Ride[](itemCount);\r\n            for (uint i = 0; i < itemCount; i++) {\r\n                uint currentId = i + 1;\r\n                Ride memory currentRide = rides[accounts[currentId]];\r\n                ridesArray[i] = currentRide;\r\n            }\r\n            return ridesArray;\r\n        }\r\n\r\n\r\n    function fetchRidesDriver()external view returns (Ride[] memory) {\r\n        uint itemCount = ridesIds.current();\r\n        Ride[] memory ridesArray = new Ride[](itemCount);\r\n            for (uint i = 0; i < itemCount; i++) {\r\n                if (ridesArray[i].driver == msg.sender){\r\n                uint currentId = i + 1;\r\n                Ride memory currentRide = rides[accounts[currentId]];\r\n                \r\n                    ridesArray[i] = currentRide;\r\n                }\r\n                \r\n            }\r\n            return ridesArray;        \r\n    }\r\n\r\n    function makeBid(string calldata bids , address rideId) public {\r\n        rides[rideId].bids = bids;\r\n\r\n    }\r\n}",
  "sourcePath": "C:\\Users\\oscar\\Desktop\\tec-ride\\contracts\\Rides.sol",
  "compiler": {
    "name": "solc",
    "version": "0.8.14+commit.80d49f37.Emscripten.clang"
  },
  "schemaVersion": "3.4.7",
  "updatedAt": "2022-06-03T03:23:59.125Z",
  "networkType": "ethereum",
  "devdoc": {
    "kind": "dev",
    "methods": {},
    "version": 1
  },
  "userdoc": {
    "kind": "user",
    "methods": {},
    "version": 1
  }
}