{
  "contractName": "Rides",
  "abi": [
    {
      "anonymous": false,
      "inputs": [
        {
          "indexed": true,
          "internalType": "address",
          "name": "_driverAddress",
          "type": "address"
        },
        {
          "indexed": true,
          "internalType": "address",
          "name": "_riderAddress",
          "type": "address"
        },
        {
          "indexed": false,
          "internalType": "uint256",
          "name": "_totalPayed",
          "type": "uint256"
        }
      ],
      "name": "Selected",
      "type": "event"
    },
    {
      "anonymous": false,
      "inputs": [
        {
          "indexed": true,
          "internalType": "address",
          "name": "canditateAddress",
          "type": "address"
        },
        {
          "indexed": false,
          "internalType": "address",
          "name": "driver",
          "type": "address"
        },
        {
          "indexed": false,
          "internalType": "string",
          "name": "rider",
          "type": "string"
        }
      ],
      "name": "rideCreated",
      "type": "event"
    },
    {
      "inputs": [
        {
          "internalType": "address payable",
          "name": "_receiver",
          "type": "address"
        },
        {
          "internalType": "string",
          "name": "rider",
          "type": "string"
        }
      ],
      "name": "payRide",
      "outputs": [],
      "stateMutability": "payable",
      "type": "function",
      "payable": true
    },
    {
      "inputs": [
        {
          "internalType": "uint256",
          "name": "cost",
          "type": "uint256"
        },
        {
          "internalType": "uint256",
          "name": "timeActive",
          "type": "uint256"
        },
        {
          "internalType": "string",
          "name": "date",
          "type": "string"
        },
        {
          "internalType": "string",
          "name": "hour",
          "type": "string"
        },
        {
          "internalType": "string",
          "name": "rider",
          "type": "string"
        },
        {
          "internalType": "string",
          "name": "destination",
          "type": "string"
        }
      ],
      "name": "registerRide",
      "outputs": [],
      "stateMutability": "nonpayable",
      "type": "function"
    },
    {
      "inputs": [],
      "name": "fetchRides",
      "outputs": [
        {
          "components": [
            {
              "internalType": "uint256",
              "name": "id",
              "type": "uint256"
            },
            {
              "internalType": "uint256",
              "name": "cost",
              "type": "uint256"
            },
            {
              "internalType": "uint256",
              "name": "timeActive",
              "type": "uint256"
            },
            {
              "internalType": "string",
              "name": "date",
              "type": "string"
            },
            {
              "internalType": "string",
              "name": "hour",
              "type": "string"
            },
            {
              "internalType": "address",
              "name": "driver",
              "type": "address"
            },
            {
              "internalType": "string",
              "name": "rider",
              "type": "string"
            },
            {
              "internalType": "string",
              "name": "destination",
              "type": "string"
            },
            {
              "internalType": "string",
              "name": "bids",
              "type": "string"
            },
            {
              "internalType": "string",
              "name": "status",
              "type": "string"
            }
          ],
          "internalType": "struct Rides.Ride[]",
          "name": "",
          "type": "tuple[]"
        }
      ],
      "stateMutability": "view",
      "type": "function",
      "constant": true
    },
    {
      "inputs": [],
      "name": "fetchRidesDriver",
      "outputs": [
        {
          "components": [
            {
              "internalType": "uint256",
              "name": "id",
              "type": "uint256"
            },
            {
              "internalType": "uint256",
              "name": "cost",
              "type": "uint256"
            },
            {
              "internalType": "uint256",
              "name": "timeActive",
              "type": "uint256"
            },
            {
              "internalType": "string",
              "name": "date",
              "type": "string"
            },
            {
              "internalType": "string",
              "name": "hour",
              "type": "string"
            },
            {
              "internalType": "address",
              "name": "driver",
              "type": "address"
            },
            {
              "internalType": "string",
              "name": "rider",
              "type": "string"
            },
            {
              "internalType": "string",
              "name": "destination",
              "type": "string"
            },
            {
              "internalType": "string",
              "name": "bids",
              "type": "string"
            },
            {
              "internalType": "string",
              "name": "status",
              "type": "string"
            }
          ],
          "internalType": "struct Rides.Ride[]",
          "name": "",
          "type": "tuple[]"
        }
      ],
      "stateMutability": "view",
      "type": "function",
      "constant": true
    },
    {
      "inputs": [
        {
          "internalType": "string",
          "name": "bids",
          "type": "string"
        },
        {
          "internalType": "address",
          "name": "rideId",
          "type": "address"
        }
      ],
      "name": "makeBid",
      "outputs": [],
      "stateMutability": "nonpayable",
      "type": "function"
    }
  ],
  "bytecode": "0x608060405234801561001057600080fd5b50611c72806100206000396000f3fe60806040526004361061004a5760003560e01c806335549cca1461004f57806360aa141e1461007a578063718acd50146100a3578063d5a9ee1c146100cc578063eda0aa1a146100f7575b600080fd5b34801561005b57600080fd5b50610064610113565b6040516100719190611696565b60405180910390f35b34801561008657600080fd5b506100a1600480360381019061009c9190611753565b610635565b005b3480156100af57600080fd5b506100ca60048036038101906100c591906117df565b61068b565b005b3480156100d857600080fd5b506100e1610ad5565b6040516100ee9190611696565b60405180910390f35b610111600480360381019061010c919061192d565b611049565b005b60606000610121600261122e565b905060008167ffffffffffffffff81111561013f5761013e61198d565b5b60405190808252806020026020018201604052801561017857816020015b610165611252565b81526020019060019003908161015d5790505b50905060005b8281101561062c57600060018261019591906119eb565b905060008060006001600085815260200190815260200160002060009054906101000a900473ffffffffffffffffffffffffffffffffffffffff1673ffffffffffffffffffffffffffffffffffffffff1673ffffffffffffffffffffffffffffffffffffffff1681526020019081526020016000206040518061014001604052908160008201548152602001600182015481526020016002820154815260200160038201805461024490611a70565b80601f016020809104026020016040519081016040528092919081815260200182805461027090611a70565b80156102bd5780601f10610292576101008083540402835291602001916102bd565b820191906000526020600020905b8154815290600101906020018083116102a057829003601f168201915b505050505081526020016004820180546102d690611a70565b80601f016020809104026020016040519081016040528092919081815260200182805461030290611a70565b801561034f5780601f106103245761010080835404028352916020019161034f565b820191906000526020600020905b81548152906001019060200180831161033257829003601f168201915b505050505081526020016005820160009054906101000a900473ffffffffffffffffffffffffffffffffffffffff1673ffffffffffffffffffffffffffffffffffffffff1673ffffffffffffffffffffffffffffffffffffffff1681526020016006820180546103be90611a70565b80601f01602080910402602001604051908101604052809291908181526020018280546103ea90611a70565b80156104375780601f1061040c57610100808354040283529160200191610437565b820191906000526020600020905b81548152906001019060200180831161041a57829003601f168201915b5050505050815260200160078201805461045090611a70565b80601f016020809104026020016040519081016040528092919081815260200182805461047c90611a70565b80156104c95780601f1061049e576101008083540402835291602001916104c9565b820191906000526020600020905b8154815290600101906020018083116104ac57829003601f168201915b505050505081526020016008820180546104e290611a70565b80601f016020809104026020016040519081016040528092919081815260200182805461050e90611a70565b801561055b5780601f106105305761010080835404028352916020019161055b565b820191906000526020600020905b81548152906001019060200180831161053e57829003601f168201915b5050505050815260200160098201805461057490611a70565b80601f01602080910402602001604051908101604052809291908181526020018280546105a090611a70565b80156105ed5780601f106105c2576101008083540402835291602001916105ed565b820191906000526020600020905b8154815290600101906020018083116105d057829003601f168201915b50505050508152505090508084848151811061060c5761060b611aa1565b5b60200260200101819052505050808061062490611ad0565b91505061017e565b50809250505090565b82826000808473ffffffffffffffffffffffffffffffffffffffff1673ffffffffffffffffffffffffffffffffffffffff16815260200190815260200160002060080191906106859291906112bb565b50505050565b600073ffffffffffffffffffffffffffffffffffffffff163373ffffffffffffffffffffffffffffffffffffffff16036106fa576040517f08c379a00000000000000000000000000000000000000000000000000000000081526004016106f190611b75565b60405180910390fd5b610704600261123c565b6000610710600261122e565b9050600033905060006040518061014001604052808481526020018e81526020018d81526020018c8c8080601f016020809104026020016040519081016040528093929190818152602001838380828437600081840152601f19601f8201169050808301925050505050505081526020018a8a8080601f016020809104026020016040519081016040528093929190818152602001838380828437600081840152601f19601f8201169050808301925050505050505081526020013373ffffffffffffffffffffffffffffffffffffffff16815260200188888080601f016020809104026020016040519081016040528093929190818152602001838380828437600081840152601f19601f82011690508083019250505050505050815260200186868080601f016020809104026020016040519081016040528093929190818152602001838380828437600081840152601f19601f8201169050808301925050505050505081526020016040518060200160405280600081525081526020016040518060400160405280600481526020017f6f70656e000000000000000000000000000000000000000000000000000000008152508152509050806000808473ffffffffffffffffffffffffffffffffffffffff1673ffffffffffffffffffffffffffffffffffffffff1681526020019081526020016000206000820151816000015560208201518160010155604082015181600201556060820151816003019080519060200190610944929190611341565b506080820151816004019080519060200190610961929190611341565b5060a08201518160050160006101000a81548173ffffffffffffffffffffffffffffffffffffffff021916908373ffffffffffffffffffffffffffffffffffffffff16021790555060c08201518160060190805190602001906109c5929190611341565b5060e08201518160070190805190602001906109e2929190611341565b50610100820151816008019080519060200190610a00929190611341565b50610120820151816009019080519060200190610a1e929190611341565b50905050336001600085815260200190815260200160002060006101000a81548173ffffffffffffffffffffffffffffffffffffffff021916908373ffffffffffffffffffffffffffffffffffffffff1602179055508173ffffffffffffffffffffffffffffffffffffffff167f58f6279d26a4574c67ef3a733e897c5f241843e348753e998bab35156d0757ac338989604051610abe93929190611be0565b60405180910390a250505050505050505050505050565b60606000610ae3600261122e565b905060008167ffffffffffffffff811115610b0157610b0061198d565b5b604051908082528060200260200182016040528015610b3a57816020015b610b27611252565b815260200190600190039081610b1f5790505b50905060005b82811015611040573373ffffffffffffffffffffffffffffffffffffffff16828281518110610b7257610b71611aa1565b5b602002602001015160a0015173ffffffffffffffffffffffffffffffffffffffff160361102d576000600182610ba891906119eb565b905060008060006001600085815260200190815260200160002060009054906101000a900473ffffffffffffffffffffffffffffffffffffffff1673ffffffffffffffffffffffffffffffffffffffff1673ffffffffffffffffffffffffffffffffffffffff16815260200190815260200160002060405180610140016040529081600082015481526020016001820154815260200160028201548152602001600382018054610c5790611a70565b80601f0160208091040260200160405190810160405280929190818152602001828054610c8390611a70565b8015610cd05780601f10610ca557610100808354040283529160200191610cd0565b820191906000526020600020905b815481529060010190602001808311610cb357829003601f168201915b50505050508152602001600482018054610ce990611a70565b80601f0160208091040260200160405190810160405280929190818152602001828054610d1590611a70565b8015610d625780601f10610d3757610100808354040283529160200191610d62565b820191906000526020600020905b815481529060010190602001808311610d4557829003601f168201915b505050505081526020016005820160009054906101000a900473ffffffffffffffffffffffffffffffffffffffff1673ffffffffffffffffffffffffffffffffffffffff1673ffffffffffffffffffffffffffffffffffffffff168152602001600682018054610dd190611a70565b80601f0160208091040260200160405190810160405280929190818152602001828054610dfd90611a70565b8015610e4a5780601f10610e1f57610100808354040283529160200191610e4a565b820191906000526020600020905b815481529060010190602001808311610e2d57829003601f168201915b50505050508152602001600782018054610e6390611a70565b80601f0160208091040260200160405190810160405280929190818152602001828054610e8f90611a70565b8015610edc5780601f10610eb157610100808354040283529160200191610edc565b820191906000526020600020905b815481529060010190602001808311610ebf57829003601f168201915b50505050508152602001600882018054610ef590611a70565b80601f0160208091040260200160405190810160405280929190818152602001828054610f2190611a70565b8015610f6e5780601f10610f4357610100808354040283529160200191610f6e565b820191906000526020600020905b815481529060010190602001808311610f5157829003601f168201915b50505050508152602001600982018054610f8790611a70565b80601f0160208091040260200160405190810160405280929190818152602001828054610fb390611a70565b80156110005780601f10610fd557610100808354040283529160200191611000565b820191906000526020600020905b815481529060010190602001808311610fe357829003601f168201915b50505050508152505090508084848151811061101f5761101e611aa1565b5b602002602001018190525050505b808061103890611ad0565b915050610b40565b50809250505090565b8273ffffffffffffffffffffffffffffffffffffffff166108fc349081150290604051600060405180830381858888f1935050505015801561108f573d6000803e3d6000fd5b5060003390506040518060400160405280600681526020017f636c6f73656400000000000000000000000000000000000000000000000000008152506000808373ffffffffffffffffffffffffffffffffffffffff1673ffffffffffffffffffffffffffffffffffffffff168152602001908152602001600020600901908051906020019061111f929190611341565b5082826000808473ffffffffffffffffffffffffffffffffffffffff1673ffffffffffffffffffffffffffffffffffffffff16815260200190815260200160002060060191906111709291906112bb565b50336001600080815260200190815260200160002060006101000a81548173ffffffffffffffffffffffffffffffffffffffff021916908373ffffffffffffffffffffffffffffffffffffffff1602179055503373ffffffffffffffffffffffffffffffffffffffff168473ffffffffffffffffffffffffffffffffffffffff167f15f05f057a35abd62deb8575f0b4d8b6a1b44039770848e6ba334b012d04b706346040516112209190611c21565b60405180910390a350505050565b600081600001549050919050565b6001816000016000828254019250508190555050565b6040518061014001604052806000815260200160008152602001600081526020016060815260200160608152602001600073ffffffffffffffffffffffffffffffffffffffff168152602001606081526020016060815260200160608152602001606081525090565b8280546112c790611a70565b90600052602060002090601f0160209004810192826112e95760008555611330565b82601f1061130257803560ff1916838001178555611330565b82800160010185558215611330579182015b8281111561132f578235825591602001919060010190611314565b5b50905061133d91906113c7565b5090565b82805461134d90611a70565b90600052602060002090601f01602090048101928261136f57600085556113b6565b82601f1061138857805160ff19168380011785556113b6565b828001600101855582156113b6579182015b828111156113b557825182559160200191906001019061139a565b5b5090506113c391906113c7565b5090565b5b808211156113e05760008160009055506001016113c8565b5090565b600081519050919050565b600082825260208201905092915050565b6000819050602082019050919050565b6000819050919050565b61142381611410565b82525050565b600081519050919050565b600082825260208201905092915050565b60005b83811015611463578082015181840152602081019050611448565b83811115611472576000848401525b50505050565b6000601f19601f8301169050919050565b600061149482611429565b61149e8185611434565b93506114ae818560208601611445565b6114b781611478565b840191505092915050565b600073ffffffffffffffffffffffffffffffffffffffff82169050919050565b60006114ed826114c2565b9050919050565b6114fd816114e2565b82525050565b60006101408301600083015161151c600086018261141a565b50602083015161152f602086018261141a565b506040830151611542604086018261141a565b506060830151848203606086015261155a8282611489565b915050608083015184820360808601526115748282611489565b91505060a083015161158960a08601826114f4565b5060c083015184820360c08601526115a18282611489565b91505060e083015184820360e08601526115bb8282611489565b9150506101008301518482036101008601526115d78282611489565b9150506101208301518482036101208601526115f38282611489565b9150508091505092915050565b600061160c8383611503565b905092915050565b6000602082019050919050565b600061162c826113e4565b61163681856113ef565b93508360208202850161164885611400565b8060005b8581101561168457848403895281516116658582611600565b945061167083611614565b925060208a0199505060018101905061164c565b50829750879550505050505092915050565b600060208201905081810360008301526116b08184611621565b905092915050565b600080fd5b600080fd5b600080fd5b600080fd5b600080fd5b60008083601f8401126116e7576116e66116c2565b5b8235905067ffffffffffffffff811115611704576117036116c7565b5b6020830191508360018202830111156117205761171f6116cc565b5b9250929050565b611730816114e2565b811461173b57600080fd5b50565b60008135905061174d81611727565b92915050565b60008060006040848603121561176c5761176b6116b8565b5b600084013567ffffffffffffffff81111561178a576117896116bd565b5b611796868287016116d1565b935093505060206117a98682870161173e565b9150509250925092565b6117bc81611410565b81146117c757600080fd5b50565b6000813590506117d9816117b3565b92915050565b60008060008060008060008060008060c08b8d031215611802576118016116b8565b5b60006118108d828e016117ca565b9a505060206118218d828e016117ca565b99505060408b013567ffffffffffffffff811115611842576118416116bd565b5b61184e8d828e016116d1565b985098505060608b013567ffffffffffffffff811115611871576118706116bd565b5b61187d8d828e016116d1565b965096505060808b013567ffffffffffffffff8111156118a05761189f6116bd565b5b6118ac8d828e016116d1565b945094505060a08b013567ffffffffffffffff8111156118cf576118ce6116bd565b5b6118db8d828e016116d1565b92509250509295989b9194979a5092959850565b60006118fa826114c2565b9050919050565b61190a816118ef565b811461191557600080fd5b50565b60008135905061192781611901565b92915050565b600080600060408486031215611946576119456116b8565b5b600061195486828701611918565b935050602084013567ffffffffffffffff811115611975576119746116bd565b5b611981868287016116d1565b92509250509250925092565b7f4e487b7100000000000000000000000000000000000000000000000000000000600052604160045260246000fd5b7f4e487b7100000000000000000000000000000000000000000000000000000000600052601160045260246000fd5b60006119f682611410565b9150611a0183611410565b9250827fffffffffffffffffffffffffffffffffffffffffffffffffffffffffffffffff03821115611a3657611a356119bc565b5b828201905092915050565b7f4e487b7100000000000000000000000000000000000000000000000000000000600052602260045260246000fd5b60006002820490506001821680611a8857607f821691505b602082108103611a9b57611a9a611a41565b5b50919050565b7f4e487b7100000000000000000000000000000000000000000000000000000000600052603260045260246000fd5b6000611adb82611410565b91507fffffffffffffffffffffffffffffffffffffffffffffffffffffffffffffffff8203611b0d57611b0c6119bc565b5b600182019050919050565b600082825260208201905092915050565b7f53656e6465722061646472657373206d7573742062652076616c696400000000600082015250565b6000611b5f601c83611b18565b9150611b6a82611b29565b602082019050919050565b60006020820190508181036000830152611b8e81611b52565b9050919050565b611b9e816114e2565b82525050565b82818337600083830152505050565b6000611bbf8385611b18565b9350611bcc838584611ba4565b611bd583611478565b840190509392505050565b6000604082019050611bf56000830186611b95565b8181036020830152611c08818486611bb3565b9050949350505050565b611c1b81611410565b82525050565b6000602082019050611c366000830184611c12565b9291505056fea26469706673582212205e8e6a81f8608e0ead36b51384c83ccb5aea383bbfcb259c734701ff31037ecf64736f6c634300080e0033",
  "immutableReferences": {},
  "source": "pragma solidity ^0.8.7;\r\n\r\nimport \"./ConvertLib.sol\";\r\nimport \"@openzeppelin/contracts/utils/Counters.sol\";\r\n\r\n// This is just a simple example of a coin-like contract.\r\n// It is not standards compatible and cannot be expected to talk to other\r\n// coin/token contracts. If you want to create a standards-compliant\r\n// token, see: https://github.com/ConsenSys/Tokens. Cheers!\r\n\r\ncontract Rides {\r\n\r\n\r\n    struct Ride {\r\n    uint id;\r\n    uint cost;\r\n    uint timeActive;\r\n    string date;\r\n    string hour;\r\n    address driver;\r\n    string rider;\r\n    string destination;\r\n    string bids;\r\n    string status;\r\n    }\r\n\r\n    mapping(address => Ride) private rides;\r\n    mapping(uint=> address) private accounts;\r\n\r\n    using Counters for Counters.Counter;\r\n    Counters.Counter private ridesIds;\r\n    event rideCreated(address indexed canditateAddress, address driver, string rider);\r\n    event Selected(address indexed _driverAddress, address indexed _riderAddress, uint _totalPayed);\r\n\r\n\r\n        function payRide(address payable _receiver, string calldata rider) public payable {\r\n        _receiver.transfer(msg.value);\r\n        address _address = address(msg.sender);\r\n        rides[_address].status = \"closed\";\r\n        rides[_address].rider = rider; \r\n        accounts[0] = msg.sender; \r\n        emit Selected(_receiver, msg.sender, msg.value);\r\n    }\r\n\r\n    function registerRide(\r\n        uint cost,\r\n        uint timeActive,\r\n        string calldata date,\r\n        string calldata hour,\r\n        string calldata rider,\r\n        string calldata destination\r\n        ) external {\r\n    require(msg.sender != address(0), \"Sender address must be valid\"); \r\n    ridesIds.increment();\r\n    uint rideId = ridesIds.current();\r\n    address _address = address(msg.sender);\r\n    Ride memory newRide = Ride(rideId, cost, timeActive, date, hour, msg.sender, rider, destination, \"\" , \"open\");  \r\n    rides[_address] = newRide;  \r\n    accounts[rideId] = msg.sender;\r\n    emit rideCreated(_address, msg.sender, rider);\r\n    }\r\n\r\n    function fetchRides() external  view  returns ( Ride[] memory) {\r\n        uint itemCount = ridesIds.current();\r\n        Ride[] memory ridesArray = new Ride[](itemCount);\r\n            for (uint i = 0; i < itemCount; i++) {\r\n                uint currentId = i + 1;\r\n                Ride memory currentRide = rides[accounts[currentId]];\r\n                ridesArray[i] = currentRide;\r\n            }\r\n            return ridesArray;\r\n        }\r\n\r\n\r\n    function fetchRidesDriver()external view returns (Ride[] memory) {\r\n        uint itemCount = ridesIds.current();\r\n        Ride[] memory ridesArray = new Ride[](itemCount);\r\n            for (uint i = 0; i < itemCount; i++) {\r\n                if (ridesArray[i].driver == msg.sender){\r\n                uint currentId = i + 1;\r\n                Ride memory currentRide = rides[accounts[currentId]];\r\n                \r\n                    ridesArray[i] = currentRide;\r\n                }\r\n                \r\n            }\r\n            return ridesArray;        \r\n    }\r\n\r\n    function makeBid(string calldata bids , address rideId) public {\r\n        rides[rideId].bids = bids;\r\n\r\n    }\r\n}",
  "sourcePath": "C:\\Users\\oscar\\Desktop\\tec-ride\\contracts\\Rides.sol",
  "compiler": {
    "name": "solc",
    "version": "0.8.14+commit.80d49f37.Emscripten.clang"
  },
  "schemaVersion": "3.4.7",
  "updatedAt": "2022-06-08T03:58:15.625Z",
  "networkType": "ethereum",
  "devdoc": {
    "kind": "dev",
    "methods": {},
    "version": 1
  },
  "userdoc": {
    "kind": "user",
    "methods": {},
    "version": 1
  }
}