{
  "contractName": "Rides",
  "abi": [
    {
      "anonymous": false,
      "inputs": [
        {
          "indexed": true,
          "internalType": "address",
          "name": "_driverAddress",
          "type": "address"
        },
        {
          "indexed": true,
          "internalType": "address",
          "name": "_riderAddress",
          "type": "address"
        },
        {
          "indexed": false,
          "internalType": "uint256",
          "name": "_totalPayed",
          "type": "uint256"
        }
      ],
      "name": "Selected",
      "type": "event"
    },
    {
      "anonymous": false,
      "inputs": [
        {
          "indexed": true,
          "internalType": "address",
          "name": "canditateAddress",
          "type": "address"
        },
        {
          "indexed": false,
          "internalType": "address",
          "name": "driver",
          "type": "address"
        },
        {
          "indexed": false,
          "internalType": "string",
          "name": "rider",
          "type": "string"
        }
      ],
      "name": "rideCreated",
      "type": "event"
    },
    {
      "inputs": [
        {
          "internalType": "address payable",
          "name": "_receiver",
          "type": "address"
        },
        {
          "internalType": "address",
          "name": "rideId",
          "type": "address"
        },
        {
          "internalType": "string",
          "name": "rider",
          "type": "string"
        }
      ],
      "name": "payRide",
      "outputs": [],
      "stateMutability": "payable",
      "type": "function",
      "payable": true
    },
    {
      "inputs": [
        {
          "internalType": "uint256",
          "name": "cost",
          "type": "uint256"
        },
        {
          "internalType": "uint256",
          "name": "timeActive",
          "type": "uint256"
        },
        {
          "internalType": "string",
          "name": "date",
          "type": "string"
        },
        {
          "internalType": "string",
          "name": "hour",
          "type": "string"
        },
        {
          "internalType": "string",
          "name": "rider",
          "type": "string"
        },
        {
          "internalType": "string",
          "name": "destination",
          "type": "string"
        }
      ],
      "name": "registerRide",
      "outputs": [],
      "stateMutability": "nonpayable",
      "type": "function"
    },
    {
      "inputs": [],
      "name": "fetchRides",
      "outputs": [
        {
          "components": [
            {
              "internalType": "uint256",
              "name": "cost",
              "type": "uint256"
            },
            {
              "internalType": "uint256",
              "name": "timeActive",
              "type": "uint256"
            },
            {
              "internalType": "string",
              "name": "date",
              "type": "string"
            },
            {
              "internalType": "string",
              "name": "hour",
              "type": "string"
            },
            {
              "internalType": "address",
              "name": "driver",
              "type": "address"
            },
            {
              "internalType": "string",
              "name": "rider",
              "type": "string"
            },
            {
              "internalType": "string",
              "name": "destination",
              "type": "string"
            },
            {
              "internalType": "address[]",
              "name": "bids",
              "type": "address[]"
            },
            {
              "internalType": "string",
              "name": "status",
              "type": "string"
            }
          ],
          "internalType": "struct Rides.Ride[]",
          "name": "",
          "type": "tuple[]"
        }
      ],
      "stateMutability": "view",
      "type": "function",
      "constant": true
    },
    {
      "inputs": [
        {
          "internalType": "address",
          "name": "driver",
          "type": "address"
        }
      ],
      "name": "fetchRidesDriver",
      "outputs": [
        {
          "components": [
            {
              "internalType": "uint256",
              "name": "cost",
              "type": "uint256"
            },
            {
              "internalType": "uint256",
              "name": "timeActive",
              "type": "uint256"
            },
            {
              "internalType": "string",
              "name": "date",
              "type": "string"
            },
            {
              "internalType": "string",
              "name": "hour",
              "type": "string"
            },
            {
              "internalType": "address",
              "name": "driver",
              "type": "address"
            },
            {
              "internalType": "string",
              "name": "rider",
              "type": "string"
            },
            {
              "internalType": "string",
              "name": "destination",
              "type": "string"
            },
            {
              "internalType": "address[]",
              "name": "bids",
              "type": "address[]"
            },
            {
              "internalType": "string",
              "name": "status",
              "type": "string"
            }
          ],
          "internalType": "struct Rides.Ride[]",
          "name": "",
          "type": "tuple[]"
        }
      ],
      "stateMutability": "view",
      "type": "function",
      "constant": true
    }
  ],
  "bytecode": "0x608060405234801561001057600080fd5b50611cb5806100206000396000f3fe60806040526004361061003f5760003560e01c80630e7578cb1461004457806335549cca14610081578063718acd50146100ac57806393fb6d8b146100d5575b600080fd5b34801561005057600080fd5b5061006b60048036038101906100669190611414565b6100f1565b604051610078919061175b565b60405180910390f35b34801561008d57600080fd5b50610096610659565b6040516100a3919061175b565b60405180910390f35b3480156100b857600080fd5b506100d360048036038101906100ce919061180e565b610b6d565b005b6100ef60048036038101906100ea919061195c565b610fe5565b005b606060006100ff6002611173565b905060008167ffffffffffffffff81111561011d5761011c6119d0565b5b60405190808252806020026020018201604052801561015657816020015b610143611197565b81526020019060019003908161013b5790505b50905060005b8281101561064e5760006001826101739190611a2e565b905060008060006001600085815260200190815260200160002060009054906101000a900473ffffffffffffffffffffffffffffffffffffffff1673ffffffffffffffffffffffffffffffffffffffff1673ffffffffffffffffffffffffffffffffffffffff16815260200190815260200160002060405180610120016040529081600082015481526020016001820154815260200160028201805461021890611ab3565b80601f016020809104026020016040519081016040528092919081815260200182805461024490611ab3565b80156102915780601f1061026657610100808354040283529160200191610291565b820191906000526020600020905b81548152906001019060200180831161027457829003601f168201915b505050505081526020016003820180546102aa90611ab3565b80601f01602080910402602001604051908101604052809291908181526020018280546102d690611ab3565b80156103235780601f106102f857610100808354040283529160200191610323565b820191906000526020600020905b81548152906001019060200180831161030657829003601f168201915b505050505081526020016004820160009054906101000a900473ffffffffffffffffffffffffffffffffffffffff1673ffffffffffffffffffffffffffffffffffffffff1673ffffffffffffffffffffffffffffffffffffffff16815260200160058201805461039290611ab3565b80601f01602080910402602001604051908101604052809291908181526020018280546103be90611ab3565b801561040b5780601f106103e05761010080835404028352916020019161040b565b820191906000526020600020905b8154815290600101906020018083116103ee57829003601f168201915b5050505050815260200160068201805461042490611ab3565b80601f016020809104026020016040519081016040528092919081815260200182805461045090611ab3565b801561049d5780601f106104725761010080835404028352916020019161049d565b820191906000526020600020905b81548152906001019060200180831161048057829003601f168201915b505050505081526020016007820180548060200260200160405190810160405280929190818152602001828054801561052b57602002820191906000526020600020905b8160009054906101000a900473ffffffffffffffffffffffffffffffffffffffff1673ffffffffffffffffffffffffffffffffffffffff16815260200190600101908083116104e1575b5050505050815260200160088201805461054490611ab3565b80601f016020809104026020016040519081016040528092919081815260200182805461057090611ab3565b80156105bd5780601f10610592576101008083540402835291602001916105bd565b820191906000526020600020905b8154815290600101906020018083116105a057829003601f168201915b50505050508152505090508673ffffffffffffffffffffffffffffffffffffffff168484815181106105f2576105f1611ae4565b5b60200260200101516080015173ffffffffffffffffffffffffffffffffffffffff1603610639578084848151811061062d5761062c611ae4565b5b60200260200101819052505b5050808061064690611b13565b91505061015c565b508092505050919050565b606060006106676002611173565b905060008167ffffffffffffffff811115610685576106846119d0565b5b6040519080825280602002602001820160405280156106be57816020015b6106ab611197565b8152602001906001900390816106a35790505b50905060005b82811015610b645760006001826106db9190611a2e565b905060008060006001600085815260200190815260200160002060009054906101000a900473ffffffffffffffffffffffffffffffffffffffff1673ffffffffffffffffffffffffffffffffffffffff1673ffffffffffffffffffffffffffffffffffffffff16815260200190815260200160002060405180610120016040529081600082015481526020016001820154815260200160028201805461078090611ab3565b80601f01602080910402602001604051908101604052809291908181526020018280546107ac90611ab3565b80156107f95780601f106107ce576101008083540402835291602001916107f9565b820191906000526020600020905b8154815290600101906020018083116107dc57829003601f168201915b5050505050815260200160038201805461081290611ab3565b80601f016020809104026020016040519081016040528092919081815260200182805461083e90611ab3565b801561088b5780601f106108605761010080835404028352916020019161088b565b820191906000526020600020905b81548152906001019060200180831161086e57829003601f168201915b505050505081526020016004820160009054906101000a900473ffffffffffffffffffffffffffffffffffffffff1673ffffffffffffffffffffffffffffffffffffffff1673ffffffffffffffffffffffffffffffffffffffff1681526020016005820180546108fa90611ab3565b80601f016020809104026020016040519081016040528092919081815260200182805461092690611ab3565b80156109735780601f1061094857610100808354040283529160200191610973565b820191906000526020600020905b81548152906001019060200180831161095657829003601f168201915b5050505050815260200160068201805461098c90611ab3565b80601f01602080910402602001604051908101604052809291908181526020018280546109b890611ab3565b8015610a055780601f106109da57610100808354040283529160200191610a05565b820191906000526020600020905b8154815290600101906020018083116109e857829003601f168201915b5050505050815260200160078201805480602002602001604051908101604052809291908181526020018280548015610a9357602002820191906000526020600020905b8160009054906101000a900473ffffffffffffffffffffffffffffffffffffffff1673ffffffffffffffffffffffffffffffffffffffff1681526020019060010190808311610a49575b50505050508152602001600882018054610aac90611ab3565b80601f0160208091040260200160405190810160405280929190818152602001828054610ad890611ab3565b8015610b255780601f10610afa57610100808354040283529160200191610b25565b820191906000526020600020905b815481529060010190602001808311610b0857829003601f168201915b505050505081525050905080848481518110610b4457610b43611ae4565b5b602002602001018190525050508080610b5c90611b13565b9150506106c4565b50809250505090565b600073ffffffffffffffffffffffffffffffffffffffff163373ffffffffffffffffffffffffffffffffffffffff1603610bdc576040517f08c379a0000000000000000000000000000000000000000000000000000000008152600401610bd390611bb8565b60405180910390fd5b610be66002611181565b6000610bf26002611173565b9050600033905060008067ffffffffffffffff811115610c1557610c146119d0565b5b604051908082528060200260200182016040528015610c435781602001602082028036833780820191505090505b50905060006040518061012001604052808f81526020018e81526020018d8d8080601f016020809104026020016040519081016040528093929190818152602001838380828437600081840152601f19601f8201169050808301925050505050505081526020018b8b8080601f016020809104026020016040519081016040528093929190818152602001838380828437600081840152601f19601f8201169050808301925050505050505081526020013373ffffffffffffffffffffffffffffffffffffffff16815260200189898080601f016020809104026020016040519081016040528093929190818152602001838380828437600081840152601f19601f82011690508083019250505050505050815260200187878080601f016020809104026020016040519081016040528093929190818152602001838380828437600081840152601f19601f8201169050808301925050505050505081526020018381526020016040518060400160405280600481526020017f6f70656e000000000000000000000000000000000000000000000000000000008152508152509050806000808573ffffffffffffffffffffffffffffffffffffffff1673ffffffffffffffffffffffffffffffffffffffff16815260200190815260200160002060008201518160000155602082015181600101556040820151816002019080519060200190610e549291906111f9565b506060820151816003019080519060200190610e719291906111f9565b5060808201518160040160006101000a81548173ffffffffffffffffffffffffffffffffffffffff021916908373ffffffffffffffffffffffffffffffffffffffff16021790555060a0820151816005019080519060200190610ed59291906111f9565b5060c0820151816006019080519060200190610ef29291906111f9565b5060e0820151816007019080519060200190610f0f92919061127f565b50610100820151816008019080519060200190610f2d9291906111f9565b50905050336001600086815260200190815260200160002060006101000a81548173ffffffffffffffffffffffffffffffffffffffff021916908373ffffffffffffffffffffffffffffffffffffffff1602179055508273ffffffffffffffffffffffffffffffffffffffff167f58f6279d26a4574c67ef3a733e897c5f241843e348753e998bab35156d0757ac338a8a604051610fcd93929190611c23565b60405180910390a25050505050505050505050505050565b8373ffffffffffffffffffffffffffffffffffffffff166108fc349081150290604051600060405180830381858888f1935050505015801561102b573d6000803e3d6000fd5b506040518060400160405280600681526020017f636c6f73656400000000000000000000000000000000000000000000000000008152506000808573ffffffffffffffffffffffffffffffffffffffff1673ffffffffffffffffffffffffffffffffffffffff16815260200190815260200160002060080190805190602001906110b69291906111f9565b5081816000808673ffffffffffffffffffffffffffffffffffffffff1673ffffffffffffffffffffffffffffffffffffffff1681526020019081526020016000206005019190611107929190611309565b503373ffffffffffffffffffffffffffffffffffffffff168473ffffffffffffffffffffffffffffffffffffffff167f15f05f057a35abd62deb8575f0b4d8b6a1b44039770848e6ba334b012d04b706346040516111659190611c64565b60405180910390a350505050565b600081600001549050919050565b6001816000016000828254019250508190555050565b60405180610120016040528060008152602001600081526020016060815260200160608152602001600073ffffffffffffffffffffffffffffffffffffffff168152602001606081526020016060815260200160608152602001606081525090565b82805461120590611ab3565b90600052602060002090601f016020900481019282611227576000855561126e565b82601f1061124057805160ff191683800117855561126e565b8280016001018555821561126e579182015b8281111561126d578251825591602001919060010190611252565b5b50905061127b919061138f565b5090565b8280548282559060005260206000209081019282156112f8579160200282015b828111156112f75782518260006101000a81548173ffffffffffffffffffffffffffffffffffffffff021916908373ffffffffffffffffffffffffffffffffffffffff1602179055509160200191906001019061129f565b5b509050611305919061138f565b5090565b82805461131590611ab3565b90600052602060002090601f016020900481019282611337576000855561137e565b82601f1061135057803560ff191683800117855561137e565b8280016001018555821561137e579182015b8281111561137d578235825591602001919060010190611362565b5b50905061138b919061138f565b5090565b5b808211156113a8576000816000905550600101611390565b5090565b600080fd5b600080fd5b600073ffffffffffffffffffffffffffffffffffffffff82169050919050565b60006113e1826113b6565b9050919050565b6113f1816113d6565b81146113fc57600080fd5b50565b60008135905061140e816113e8565b92915050565b60006020828403121561142a576114296113ac565b5b6000611438848285016113ff565b91505092915050565b600081519050919050565b600082825260208201905092915050565b6000819050602082019050919050565b6000819050919050565b6114808161146d565b82525050565b600081519050919050565b600082825260208201905092915050565b60005b838110156114c05780820151818401526020810190506114a5565b838111156114cf576000848401525b50505050565b6000601f19601f8301169050919050565b60006114f182611486565b6114fb8185611491565b935061150b8185602086016114a2565b611514816114d5565b840191505092915050565b611528816113d6565b82525050565b600081519050919050565b600082825260208201905092915050565b6000819050602082019050919050565b6000611566838361151f565b60208301905092915050565b6000602082019050919050565b600061158a8261152e565b6115948185611539565b935061159f8361154a565b8060005b838110156115d05781516115b7888261155a565b97506115c283611572565b9250506001810190506115a3565b5085935050505092915050565b6000610120830160008301516115f66000860182611477565b5060208301516116096020860182611477565b506040830151848203604086015261162182826114e6565b9150506060830151848203606086015261163b82826114e6565b9150506080830151611650608086018261151f565b5060a083015184820360a086015261166882826114e6565b91505060c083015184820360c086015261168282826114e6565b91505060e083015184820360e086015261169c828261157f565b9150506101008301518482036101008601526116b882826114e6565b9150508091505092915050565b60006116d183836115dd565b905092915050565b6000602082019050919050565b60006116f182611441565b6116fb818561144c565b93508360208202850161170d8561145d565b8060005b85811015611749578484038952815161172a85826116c5565b9450611735836116d9565b925060208a01995050600181019050611711565b50829750879550505050505092915050565b6000602082019050818103600083015261177581846116e6565b905092915050565b6117868161146d565b811461179157600080fd5b50565b6000813590506117a38161177d565b92915050565b600080fd5b600080fd5b600080fd5b60008083601f8401126117ce576117cd6117a9565b5b8235905067ffffffffffffffff8111156117eb576117ea6117ae565b5b602083019150836001820283011115611807576118066117b3565b5b9250929050565b60008060008060008060008060008060c08b8d031215611831576118306113ac565b5b600061183f8d828e01611794565b9a505060206118508d828e01611794565b99505060408b013567ffffffffffffffff811115611871576118706113b1565b5b61187d8d828e016117b8565b985098505060608b013567ffffffffffffffff8111156118a05761189f6113b1565b5b6118ac8d828e016117b8565b965096505060808b013567ffffffffffffffff8111156118cf576118ce6113b1565b5b6118db8d828e016117b8565b945094505060a08b013567ffffffffffffffff8111156118fe576118fd6113b1565b5b61190a8d828e016117b8565b92509250509295989b9194979a5092959850565b6000611929826113b6565b9050919050565b6119398161191e565b811461194457600080fd5b50565b60008135905061195681611930565b92915050565b60008060008060608587031215611976576119756113ac565b5b600061198487828801611947565b9450506020611995878288016113ff565b935050604085013567ffffffffffffffff8111156119b6576119b56113b1565b5b6119c2878288016117b8565b925092505092959194509250565b7f4e487b7100000000000000000000000000000000000000000000000000000000600052604160045260246000fd5b7f4e487b7100000000000000000000000000000000000000000000000000000000600052601160045260246000fd5b6000611a398261146d565b9150611a448361146d565b9250827fffffffffffffffffffffffffffffffffffffffffffffffffffffffffffffffff03821115611a7957611a786119ff565b5b828201905092915050565b7f4e487b7100000000000000000000000000000000000000000000000000000000600052602260045260246000fd5b60006002820490506001821680611acb57607f821691505b602082108103611ade57611add611a84565b5b50919050565b7f4e487b7100000000000000000000000000000000000000000000000000000000600052603260045260246000fd5b6000611b1e8261146d565b91507fffffffffffffffffffffffffffffffffffffffffffffffffffffffffffffffff8203611b5057611b4f6119ff565b5b600182019050919050565b600082825260208201905092915050565b7f53656e6465722061646472657373206d7573742062652076616c696400000000600082015250565b6000611ba2601c83611b5b565b9150611bad82611b6c565b602082019050919050565b60006020820190508181036000830152611bd181611b95565b9050919050565b611be1816113d6565b82525050565b82818337600083830152505050565b6000611c028385611b5b565b9350611c0f838584611be7565b611c18836114d5565b840190509392505050565b6000604082019050611c386000830186611bd8565b8181036020830152611c4b818486611bf6565b9050949350505050565b611c5e8161146d565b82525050565b6000602082019050611c796000830184611c55565b9291505056fea2646970667358221220fa661b75bd4779c342f4ac7c25eb286a3915073f3da3b4df10f0cf9642389e0b64736f6c634300080e0033",
  "immutableReferences": {},
  "source": "pragma solidity ^0.8.7;\r\n\r\nimport \"./ConvertLib.sol\";\r\nimport \"@openzeppelin/contracts/utils/Counters.sol\";\r\n\r\n// This is just a simple example of a coin-like contract.\r\n// It is not standards compatible and cannot be expected to talk to other\r\n// coin/token contracts. If you want to create a standards-compliant\r\n// token, see: https://github.com/ConsenSys/Tokens. Cheers!\r\n\r\ncontract Rides {\r\n\r\n\r\n    struct Bid {\r\n        string rider;\r\n        uint ammount;\r\n    }\r\n\r\n    struct Ride {\r\n    uint cost;\r\n    uint timeActive;\r\n    string date;\r\n    string hour;\r\n    address driver;\r\n    string rider;\r\n    string destination;\r\n    address [] bids;\r\n    string status;\r\n    }\r\n\r\n    mapping(address => Ride) private rides;\r\n    mapping(uint=> address) private accounts;\r\n\r\n    using Counters for Counters.Counter;\r\n    Counters.Counter private ridesIds;\r\n    event rideCreated(address indexed canditateAddress, address driver, string rider);\r\n    event Selected(address indexed _driverAddress, address indexed _riderAddress, uint _totalPayed);\r\n\r\n\r\n        function payRide(address payable _receiver, address rideId, string calldata rider) public payable {\r\n        _receiver.transfer(msg.value);\r\n        rides[rideId].status = \"closed\";\r\n        rides[rideId].rider = rider;\r\n        emit Selected(_receiver, msg.sender, msg.value);\r\n    }\r\n\r\n    function registerRide(\r\n        uint cost,\r\n        uint timeActive,\r\n        string calldata date,\r\n        string calldata hour,\r\n        string calldata rider,\r\n        string calldata destination\r\n        ) external {\r\n    require(msg.sender != address(0), \"Sender address must be valid\"); \r\n    ridesIds.increment();\r\n    uint rideId = ridesIds.current();\r\n    address _address = address(msg.sender);\r\n    address [] memory bids = new address[](0);\r\n    Ride memory newRide = Ride(cost, timeActive, date, hour, msg.sender, rider, destination, bids , \"open\");  \r\n    rides[_address] = newRide;  \r\n    accounts[rideId] = msg.sender;\r\n    emit rideCreated(_address, msg.sender, rider);\r\n    }\r\n\r\n    function fetchRides() external  view  returns ( Ride[] memory) {\r\n        uint itemCount = ridesIds.current();\r\n        Ride[] memory ridesArray = new Ride[](itemCount);\r\n            for (uint i = 0; i < itemCount; i++) {\r\n                uint currentId = i + 1;\r\n                Ride memory currentRide = rides[accounts[currentId]];\r\n                ridesArray[i] = currentRide;\r\n            }\r\n            return ridesArray;\r\n        }\r\n\r\n    function fetchRidesDriver(address driver)external view returns (Ride[] memory) {\r\n        uint itemCount = ridesIds.current();\r\n        Ride[] memory ridesArray = new Ride[](itemCount);\r\n            for (uint i = 0; i < itemCount; i++) {\r\n                uint currentId = i + 1;\r\n                Ride memory currentRide = rides[accounts[currentId]];\r\n                if (ridesArray[i].driver == driver){\r\n                    ridesArray[i] = currentRide;\r\n                }\r\n                \r\n            }\r\n            return ridesArray;        \r\n    }\r\n}",
  "sourcePath": "C:\\Users\\oscar\\Desktop\\tec-ride\\contracts\\Rides.sol",
  "compiler": {
    "name": "solc",
    "version": "0.8.14+commit.80d49f37.Emscripten.clang"
  },
  "schemaVersion": "3.4.7",
  "updatedAt": "2022-06-02T16:10:11.024Z",
  "networkType": "ethereum",
  "devdoc": {
    "kind": "dev",
    "methods": {},
    "version": 1
  },
  "userdoc": {
    "kind": "user",
    "methods": {},
    "version": 1
  }
}