{
  "contractName": "Rides",
  "abi": [
    {
      "anonymous": false,
      "inputs": [
        {
          "indexed": true,
          "internalType": "address",
          "name": "_driverAddress",
          "type": "address"
        },
        {
          "indexed": true,
          "internalType": "address",
          "name": "_riderAddress",
          "type": "address"
        },
        {
          "indexed": false,
          "internalType": "uint256",
          "name": "_totalPayed",
          "type": "uint256"
        }
      ],
      "name": "Selected",
      "type": "event"
    },
    {
      "anonymous": false,
      "inputs": [
        {
          "indexed": true,
          "internalType": "address",
          "name": "canditateAddress",
          "type": "address"
        },
        {
          "indexed": false,
          "internalType": "address",
          "name": "driver",
          "type": "address"
        },
        {
          "indexed": false,
          "internalType": "string",
          "name": "rider",
          "type": "string"
        }
      ],
      "name": "rideCreated",
      "type": "event"
    },
    {
      "inputs": [
        {
          "internalType": "address payable",
          "name": "_receiver",
          "type": "address"
        },
        {
          "internalType": "address",
          "name": "rideId",
          "type": "address"
        },
        {
          "internalType": "string",
          "name": "rider",
          "type": "string"
        }
      ],
      "name": "payRide",
      "outputs": [],
      "stateMutability": "payable",
      "type": "function",
      "payable": true
    },
    {
      "inputs": [
        {
          "internalType": "uint256",
          "name": "cost",
          "type": "uint256"
        },
        {
          "internalType": "uint256",
          "name": "timeActive",
          "type": "uint256"
        },
        {
          "internalType": "string",
          "name": "date",
          "type": "string"
        },
        {
          "internalType": "string",
          "name": "hour",
          "type": "string"
        },
        {
          "internalType": "string",
          "name": "rider",
          "type": "string"
        },
        {
          "internalType": "string",
          "name": "destination",
          "type": "string"
        }
      ],
      "name": "registerRide",
      "outputs": [],
      "stateMutability": "nonpayable",
      "type": "function"
    },
    {
      "inputs": [],
      "name": "fetchRides",
      "outputs": [
        {
          "components": [
            {
              "internalType": "uint256",
              "name": "cost",
              "type": "uint256"
            },
            {
              "internalType": "uint256",
              "name": "timeActive",
              "type": "uint256"
            },
            {
              "internalType": "string",
              "name": "date",
              "type": "string"
            },
            {
              "internalType": "string",
              "name": "hour",
              "type": "string"
            },
            {
              "internalType": "address",
              "name": "driver",
              "type": "address"
            },
            {
              "internalType": "string",
              "name": "rider",
              "type": "string"
            },
            {
              "internalType": "string",
              "name": "destination",
              "type": "string"
            },
            {
              "internalType": "string",
              "name": "bids",
              "type": "string"
            },
            {
              "internalType": "string",
              "name": "status",
              "type": "string"
            }
          ],
          "internalType": "struct Rides.Ride[]",
          "name": "",
          "type": "tuple[]"
        }
      ],
      "stateMutability": "view",
      "type": "function",
      "constant": true
    }
  ],
  "bytecode": "0x608060405234801561001057600080fd5b5061158a806100206000396000f3fe6080604052600436106100345760003560e01c806335549cca14610039578063718acd501461006457806393fb6d8b1461008d575b600080fd5b34801561004557600080fd5b5061004e6100a9565b60405161005b9190610ffa565b60405180910390f35b34801561007057600080fd5b5061008b600480360381019061008691906110b7565b6105c1565b005b6100a760048036038101906100a29190611231565b610a20565b005b606060006100b76002610bae565b905060008167ffffffffffffffff8111156100d5576100d46112a5565b5b60405190808252806020026020018201604052801561010e57816020015b6100fb610bd2565b8152602001906001900390816100f35790505b50905060005b828110156105b857600060018261012b9190611303565b905060008060006001600085815260200190815260200160002060009054906101000a900473ffffffffffffffffffffffffffffffffffffffff1673ffffffffffffffffffffffffffffffffffffffff1673ffffffffffffffffffffffffffffffffffffffff1681526020019081526020016000206040518061012001604052908160008201548152602001600182015481526020016002820180546101d090611388565b80601f01602080910402602001604051908101604052809291908181526020018280546101fc90611388565b80156102495780601f1061021e57610100808354040283529160200191610249565b820191906000526020600020905b81548152906001019060200180831161022c57829003601f168201915b5050505050815260200160038201805461026290611388565b80601f016020809104026020016040519081016040528092919081815260200182805461028e90611388565b80156102db5780601f106102b0576101008083540402835291602001916102db565b820191906000526020600020905b8154815290600101906020018083116102be57829003601f168201915b505050505081526020016004820160009054906101000a900473ffffffffffffffffffffffffffffffffffffffff1673ffffffffffffffffffffffffffffffffffffffff1673ffffffffffffffffffffffffffffffffffffffff16815260200160058201805461034a90611388565b80601f016020809104026020016040519081016040528092919081815260200182805461037690611388565b80156103c35780601f10610398576101008083540402835291602001916103c3565b820191906000526020600020905b8154815290600101906020018083116103a657829003601f168201915b505050505081526020016006820180546103dc90611388565b80601f016020809104026020016040519081016040528092919081815260200182805461040890611388565b80156104555780601f1061042a57610100808354040283529160200191610455565b820191906000526020600020905b81548152906001019060200180831161043857829003601f168201915b5050505050815260200160078201805461046e90611388565b80601f016020809104026020016040519081016040528092919081815260200182805461049a90611388565b80156104e75780601f106104bc576101008083540402835291602001916104e7565b820191906000526020600020905b8154815290600101906020018083116104ca57829003601f168201915b5050505050815260200160088201805461050090611388565b80601f016020809104026020016040519081016040528092919081815260200182805461052c90611388565b80156105795780601f1061054e57610100808354040283529160200191610579565b820191906000526020600020905b81548152906001019060200180831161055c57829003601f168201915b505050505081525050905080848481518110610598576105976113b9565b5b6020026020010181905250505080806105b0906113e8565b915050610114565b50809250505090565b600073ffffffffffffffffffffffffffffffffffffffff163373ffffffffffffffffffffffffffffffffffffffff1603610630576040517f08c379a00000000000000000000000000000000000000000000000000000000081526004016106279061148d565b60405180910390fd5b61063a6002610bbc565b60006106466002610bae565b9050600033905060006040518061012001604052808e81526020018d81526020018c8c8080601f016020809104026020016040519081016040528093929190818152602001838380828437600081840152601f19601f8201169050808301925050505050505081526020018a8a8080601f016020809104026020016040519081016040528093929190818152602001838380828437600081840152601f19601f8201169050808301925050505050505081526020013373ffffffffffffffffffffffffffffffffffffffff16815260200188888080601f016020809104026020016040519081016040528093929190818152602001838380828437600081840152601f19601f82011690508083019250505050505050815260200186868080601f016020809104026020016040519081016040528093929190818152602001838380828437600081840152601f19601f8201169050808301925050505050505081526020016040518060400160405280600281526020017f5b5d00000000000000000000000000000000000000000000000000000000000081525081526020016040518060400160405280600481526020017f6f70656e000000000000000000000000000000000000000000000000000000008152508152509050806000808473ffffffffffffffffffffffffffffffffffffffff1673ffffffffffffffffffffffffffffffffffffffff16815260200190815260200160002060008201518160000155602082015181600101556040820151816002019080519060200190610890929190610c34565b5060608201518160030190805190602001906108ad929190610c34565b5060808201518160040160006101000a81548173ffffffffffffffffffffffffffffffffffffffff021916908373ffffffffffffffffffffffffffffffffffffffff16021790555060a0820151816005019080519060200190610911929190610c34565b5060c082015181600601908051906020019061092e929190610c34565b5060e082015181600701908051906020019061094b929190610c34565b50610100820151816008019080519060200190610969929190610c34565b50905050336001600085815260200190815260200160002060006101000a81548173ffffffffffffffffffffffffffffffffffffffff021916908373ffffffffffffffffffffffffffffffffffffffff1602179055508173ffffffffffffffffffffffffffffffffffffffff167f58f6279d26a4574c67ef3a733e897c5f241843e348753e998bab35156d0757ac338989604051610a09939291906114f8565b60405180910390a250505050505050505050505050565b8373ffffffffffffffffffffffffffffffffffffffff166108fc349081150290604051600060405180830381858888f19350505050158015610a66573d6000803e3d6000fd5b506040518060400160405280600681526020017f636c6f73656400000000000000000000000000000000000000000000000000008152506000808573ffffffffffffffffffffffffffffffffffffffff1673ffffffffffffffffffffffffffffffffffffffff1681526020019081526020016000206008019080519060200190610af1929190610c34565b5081816000808673ffffffffffffffffffffffffffffffffffffffff1673ffffffffffffffffffffffffffffffffffffffff1681526020019081526020016000206005019190610b42929190610cba565b503373ffffffffffffffffffffffffffffffffffffffff168473ffffffffffffffffffffffffffffffffffffffff167f15f05f057a35abd62deb8575f0b4d8b6a1b44039770848e6ba334b012d04b70634604051610ba09190611539565b60405180910390a350505050565b600081600001549050919050565b6001816000016000828254019250508190555050565b60405180610120016040528060008152602001600081526020016060815260200160608152602001600073ffffffffffffffffffffffffffffffffffffffff168152602001606081526020016060815260200160608152602001606081525090565b828054610c4090611388565b90600052602060002090601f016020900481019282610c625760008555610ca9565b82601f10610c7b57805160ff1916838001178555610ca9565b82800160010185558215610ca9579182015b82811115610ca8578251825591602001919060010190610c8d565b5b509050610cb69190610d40565b5090565b828054610cc690611388565b90600052602060002090601f016020900481019282610ce85760008555610d2f565b82601f10610d0157803560ff1916838001178555610d2f565b82800160010185558215610d2f579182015b82811115610d2e578235825591602001919060010190610d13565b5b509050610d3c9190610d40565b5090565b5b80821115610d59576000816000905550600101610d41565b5090565b600081519050919050565b600082825260208201905092915050565b6000819050602082019050919050565b6000819050919050565b610d9c81610d89565b82525050565b600081519050919050565b600082825260208201905092915050565b60005b83811015610ddc578082015181840152602081019050610dc1565b83811115610deb576000848401525b50505050565b6000601f19601f8301169050919050565b6000610e0d82610da2565b610e178185610dad565b9350610e27818560208601610dbe565b610e3081610df1565b840191505092915050565b600073ffffffffffffffffffffffffffffffffffffffff82169050919050565b6000610e6682610e3b565b9050919050565b610e7681610e5b565b82525050565b600061012083016000830151610e956000860182610d93565b506020830151610ea86020860182610d93565b5060408301518482036040860152610ec08282610e02565b91505060608301518482036060860152610eda8282610e02565b9150506080830151610eef6080860182610e6d565b5060a083015184820360a0860152610f078282610e02565b91505060c083015184820360c0860152610f218282610e02565b91505060e083015184820360e0860152610f3b8282610e02565b915050610100830151848203610100860152610f578282610e02565b9150508091505092915050565b6000610f708383610e7c565b905092915050565b6000602082019050919050565b6000610f9082610d5d565b610f9a8185610d68565b935083602082028501610fac85610d79565b8060005b85811015610fe85784840389528151610fc98582610f64565b9450610fd483610f78565b925060208a01995050600181019050610fb0565b50829750879550505050505092915050565b600060208201905081810360008301526110148184610f85565b905092915050565b600080fd5b600080fd5b61102f81610d89565b811461103a57600080fd5b50565b60008135905061104c81611026565b92915050565b600080fd5b600080fd5b600080fd5b60008083601f84011261107757611076611052565b5b8235905067ffffffffffffffff81111561109457611093611057565b5b6020830191508360018202830111156110b0576110af61105c565b5b9250929050565b60008060008060008060008060008060c08b8d0312156110da576110d961101c565b5b60006110e88d828e0161103d565b9a505060206110f98d828e0161103d565b99505060408b013567ffffffffffffffff81111561111a57611119611021565b5b6111268d828e01611061565b985098505060608b013567ffffffffffffffff81111561114957611148611021565b5b6111558d828e01611061565b965096505060808b013567ffffffffffffffff81111561117857611177611021565b5b6111848d828e01611061565b945094505060a08b013567ffffffffffffffff8111156111a7576111a6611021565b5b6111b38d828e01611061565b92509250509295989b9194979a5092959850565b60006111d282610e3b565b9050919050565b6111e2816111c7565b81146111ed57600080fd5b50565b6000813590506111ff816111d9565b92915050565b61120e81610e5b565b811461121957600080fd5b50565b60008135905061122b81611205565b92915050565b6000806000806060858703121561124b5761124a61101c565b5b6000611259878288016111f0565b945050602061126a8782880161121c565b935050604085013567ffffffffffffffff81111561128b5761128a611021565b5b61129787828801611061565b925092505092959194509250565b7f4e487b7100000000000000000000000000000000000000000000000000000000600052604160045260246000fd5b7f4e487b7100000000000000000000000000000000000000000000000000000000600052601160045260246000fd5b600061130e82610d89565b915061131983610d89565b9250827fffffffffffffffffffffffffffffffffffffffffffffffffffffffffffffffff0382111561134e5761134d6112d4565b5b828201905092915050565b7f4e487b7100000000000000000000000000000000000000000000000000000000600052602260045260246000fd5b600060028204905060018216806113a057607f821691505b6020821081036113b3576113b2611359565b5b50919050565b7f4e487b7100000000000000000000000000000000000000000000000000000000600052603260045260246000fd5b60006113f382610d89565b91507fffffffffffffffffffffffffffffffffffffffffffffffffffffffffffffffff8203611425576114246112d4565b5b600182019050919050565b600082825260208201905092915050565b7f53656e6465722061646472657373206d7573742062652076616c696400000000600082015250565b6000611477601c83611430565b915061148282611441565b602082019050919050565b600060208201905081810360008301526114a68161146a565b9050919050565b6114b681610e5b565b82525050565b82818337600083830152505050565b60006114d78385611430565b93506114e48385846114bc565b6114ed83610df1565b840190509392505050565b600060408201905061150d60008301866114ad565b81810360208301526115208184866114cb565b9050949350505050565b61153381610d89565b82525050565b600060208201905061154e600083018461152a565b9291505056fea26469706673582212200449437e2998f9c9d1d247a7598da2b00a5415e944daf01f2d2725a5e484806f64736f6c634300080e0033",
  "immutableReferences": {},
  "source": "pragma solidity ^0.8.7;\r\n\r\nimport \"./ConvertLib.sol\";\r\nimport \"@openzeppelin/contracts/utils/Counters.sol\";\r\n\r\n// This is just a simple example of a coin-like contract.\r\n// It is not standards compatible and cannot be expected to talk to other\r\n// coin/token contracts. If you want to create a standards-compliant\r\n// token, see: https://github.com/ConsenSys/Tokens. Cheers!\r\n\r\ncontract Rides {\r\n\r\n    struct Ride {\r\n    uint cost;\r\n    uint timeActive;\r\n    string date;\r\n    string hour;\r\n    address driver;\r\n    string rider;\r\n    string destination;\r\n    string bids;\r\n    string status;\r\n    }\r\n\r\n    mapping(address => Ride) private rides;\r\n    mapping(uint=> address) private accounts;\r\n\r\n    using Counters for Counters.Counter;\r\n    Counters.Counter private ridesIds;\r\n    event rideCreated(address indexed canditateAddress, address driver, string rider);\r\n    event Selected(address indexed _driverAddress, address indexed _riderAddress, uint _totalPayed);\r\n\r\n\r\n        function payRide(address payable _receiver, address rideId, string calldata rider) public payable {\r\n        _receiver.transfer(msg.value);\r\n        rides[rideId].status = \"closed\";\r\n        rides[rideId].rider = rider;\r\n        emit Selected(_receiver, msg.sender, msg.value);\r\n    }\r\n\r\n    function registerRide(\r\n        uint cost,\r\n        uint timeActive,\r\n        string calldata date,\r\n        string calldata hour,\r\n        string calldata rider,\r\n        string calldata destination\r\n        ) external {\r\n    require(msg.sender != address(0), \"Sender address must be valid\"); \r\n    ridesIds.increment();\r\n    uint rideId = ridesIds.current();\r\n    address _address = address(msg.sender);\r\n    Ride memory newRide = Ride(cost, timeActive, date, hour, msg.sender, rider, destination, \"[]\", \"open\");  \r\n    rides[_address] = newRide;  \r\n    accounts[rideId] = msg.sender;\r\n    emit rideCreated(_address, msg.sender, rider);\r\n    }\r\n\r\n    function fetchRides() external  view  returns ( Ride[] memory) {\r\n        uint itemCount = ridesIds.current();\r\n        Ride[] memory ridesArray = new Ride[](itemCount);\r\n            for (uint i = 0; i < itemCount; i++) {\r\n                uint currentId = i + 1;\r\n                Ride memory currentRide = rides[accounts[currentId]];\r\n                ridesArray[i] = currentRide;\r\n            }\r\n            return ridesArray;\r\n        }\r\n}",
  "sourcePath": "C:\\Users\\oscar\\Desktop\\tec-ride\\contracts\\Rides.sol",
  "compiler": {
    "name": "solc",
    "version": "0.8.14+commit.80d49f37.Emscripten.clang"
  },
  "schemaVersion": "3.4.7",
  "updatedAt": "2022-05-29T23:23:26.615Z",
  "networkType": "ethereum",
  "devdoc": {
    "kind": "dev",
    "methods": {},
    "version": 1
  },
  "userdoc": {
    "kind": "user",
    "methods": {},
    "version": 1
  }
}