{
  "contractName": "Rides",
  "abi": [
    {
      "anonymous": false,
      "inputs": [
        {
          "indexed": true,
          "internalType": "address",
          "name": "_driverAddress",
          "type": "address"
        },
        {
          "indexed": true,
          "internalType": "address",
          "name": "_riderAddress",
          "type": "address"
        },
        {
          "indexed": false,
          "internalType": "uint256",
          "name": "_totalPayed",
          "type": "uint256"
        }
      ],
      "name": "Selected",
      "type": "event"
    },
    {
      "anonymous": false,
      "inputs": [
        {
          "indexed": true,
          "internalType": "address",
          "name": "canditateAddress",
          "type": "address"
        },
        {
          "indexed": false,
          "internalType": "address",
          "name": "driver",
          "type": "address"
        },
        {
          "indexed": false,
          "internalType": "string",
          "name": "rider",
          "type": "string"
        }
      ],
      "name": "rideCreated",
      "type": "event"
    },
    {
      "inputs": [
        {
          "internalType": "address payable",
          "name": "_receiver",
          "type": "address"
        }
      ],
      "name": "payRide",
      "outputs": [],
      "stateMutability": "payable",
      "type": "function",
      "payable": true
    },
    {
      "inputs": [
        {
          "internalType": "uint256",
          "name": "cost",
          "type": "uint256"
        },
        {
          "internalType": "uint256",
          "name": "timeActive",
          "type": "uint256"
        },
        {
          "internalType": "string",
          "name": "date",
          "type": "string"
        },
        {
          "internalType": "string",
          "name": "hour",
          "type": "string"
        },
        {
          "internalType": "string",
          "name": "rider",
          "type": "string"
        },
        {
          "internalType": "string",
          "name": "destination",
          "type": "string"
        }
      ],
      "name": "registerRide",
      "outputs": [],
      "stateMutability": "nonpayable",
      "type": "function"
    },
    {
      "inputs": [],
      "name": "fetchRides",
      "outputs": [
        {
          "components": [
            {
              "internalType": "uint256",
              "name": "cost",
              "type": "uint256"
            },
            {
              "internalType": "uint256",
              "name": "timeActive",
              "type": "uint256"
            },
            {
              "internalType": "string",
              "name": "date",
              "type": "string"
            },
            {
              "internalType": "string",
              "name": "hour",
              "type": "string"
            },
            {
              "internalType": "address",
              "name": "driver",
              "type": "address"
            },
            {
              "internalType": "string",
              "name": "rider",
              "type": "string"
            },
            {
              "internalType": "string",
              "name": "destination",
              "type": "string"
            },
            {
              "internalType": "string",
              "name": "bids",
              "type": "string"
            },
            {
              "internalType": "string",
              "name": "status",
              "type": "string"
            }
          ],
          "internalType": "struct Rides.Ride[]",
          "name": "",
          "type": "tuple[]"
        }
      ],
      "stateMutability": "view",
      "type": "function",
      "constant": true
    },
    {
      "inputs": [],
      "name": "fetchRidesDriver",
      "outputs": [
        {
          "components": [
            {
              "internalType": "uint256",
              "name": "cost",
              "type": "uint256"
            },
            {
              "internalType": "uint256",
              "name": "timeActive",
              "type": "uint256"
            },
            {
              "internalType": "string",
              "name": "date",
              "type": "string"
            },
            {
              "internalType": "string",
              "name": "hour",
              "type": "string"
            },
            {
              "internalType": "address",
              "name": "driver",
              "type": "address"
            },
            {
              "internalType": "string",
              "name": "rider",
              "type": "string"
            },
            {
              "internalType": "string",
              "name": "destination",
              "type": "string"
            },
            {
              "internalType": "string",
              "name": "bids",
              "type": "string"
            },
            {
              "internalType": "string",
              "name": "status",
              "type": "string"
            }
          ],
          "internalType": "struct Rides.Ride[]",
          "name": "",
          "type": "tuple[]"
        }
      ],
      "stateMutability": "view",
      "type": "function",
      "constant": true
    },
    {
      "inputs": [
        {
          "internalType": "string",
          "name": "bids",
          "type": "string"
        },
        {
          "internalType": "address",
          "name": "rideId",
          "type": "address"
        }
      ],
      "name": "makeBid",
      "outputs": [],
      "stateMutability": "nonpayable",
      "type": "function"
    }
  ],
  "bytecode": "0x608060405234801561001057600080fd5b50611ac8806100206000396000f3fe60806040526004361061004a5760003560e01c80631887ff431461004f57806335549cca1461006b57806360aa141e14610096578063718acd50146100bf578063d5a9ee1c146100e8575b600080fd5b610069600480360381019061006491906112ea565b610113565b005b34801561007757600080fd5b506100806101c2565b60405161008d9190611594565b60405180910390f35b3480156100a257600080fd5b506100bd60048036038101906100b89190611647565b6106da565b005b3480156100cb57600080fd5b506100e660048036038101906100e191906116d3565b610730565b005b3480156100f457600080fd5b506100fd610b69565b60405161010a9190611594565b60405180910390f35b8073ffffffffffffffffffffffffffffffffffffffff166108fc349081150290604051600060405180830381858888f19350505050158015610159573d6000803e3d6000fd5b503373ffffffffffffffffffffffffffffffffffffffff168173ffffffffffffffffffffffffffffffffffffffff167f15f05f057a35abd62deb8575f0b4d8b6a1b44039770848e6ba334b012d04b706346040516101b791906117f2565b60405180910390a350565b606060006101d060026110d3565b905060008167ffffffffffffffff8111156101ee576101ed61180d565b5b60405190808252806020026020018201604052801561022757816020015b6102146110f7565b81526020019060019003908161020c5790505b50905060005b828110156106d1576000600182610244919061186b565b905060008060006001600085815260200190815260200160002060009054906101000a900473ffffffffffffffffffffffffffffffffffffffff1673ffffffffffffffffffffffffffffffffffffffff1673ffffffffffffffffffffffffffffffffffffffff1681526020019081526020016000206040518061012001604052908160008201548152602001600182015481526020016002820180546102e9906118f0565b80601f0160208091040260200160405190810160405280929190818152602001828054610315906118f0565b80156103625780601f1061033757610100808354040283529160200191610362565b820191906000526020600020905b81548152906001019060200180831161034557829003601f168201915b5050505050815260200160038201805461037b906118f0565b80601f01602080910402602001604051908101604052809291908181526020018280546103a7906118f0565b80156103f45780601f106103c9576101008083540402835291602001916103f4565b820191906000526020600020905b8154815290600101906020018083116103d757829003601f168201915b505050505081526020016004820160009054906101000a900473ffffffffffffffffffffffffffffffffffffffff1673ffffffffffffffffffffffffffffffffffffffff1673ffffffffffffffffffffffffffffffffffffffff168152602001600582018054610463906118f0565b80601f016020809104026020016040519081016040528092919081815260200182805461048f906118f0565b80156104dc5780601f106104b1576101008083540402835291602001916104dc565b820191906000526020600020905b8154815290600101906020018083116104bf57829003601f168201915b505050505081526020016006820180546104f5906118f0565b80601f0160208091040260200160405190810160405280929190818152602001828054610521906118f0565b801561056e5780601f106105435761010080835404028352916020019161056e565b820191906000526020600020905b81548152906001019060200180831161055157829003601f168201915b50505050508152602001600782018054610587906118f0565b80601f01602080910402602001604051908101604052809291908181526020018280546105b3906118f0565b80156106005780601f106105d557610100808354040283529160200191610600565b820191906000526020600020905b8154815290600101906020018083116105e357829003601f168201915b50505050508152602001600882018054610619906118f0565b80601f0160208091040260200160405190810160405280929190818152602001828054610645906118f0565b80156106925780601f1061066757610100808354040283529160200191610692565b820191906000526020600020905b81548152906001019060200180831161067557829003601f168201915b5050505050815250509050808484815181106106b1576106b0611921565b5b6020026020010181905250505080806106c990611950565b91505061022d565b50809250505090565b82826000808473ffffffffffffffffffffffffffffffffffffffff1673ffffffffffffffffffffffffffffffffffffffff168152602001908152602001600020600701919061072a929190611159565b50505050565b600073ffffffffffffffffffffffffffffffffffffffff163373ffffffffffffffffffffffffffffffffffffffff160361079f576040517f08c379a0000000000000000000000000000000000000000000000000000000008152600401610796906119f5565b60405180910390fd5b6107a960026110e1565b60006107b560026110d3565b9050600033905060006040518061012001604052808e81526020018d81526020018c8c8080601f016020809104026020016040519081016040528093929190818152602001838380828437600081840152601f19601f8201169050808301925050505050505081526020018a8a8080601f016020809104026020016040519081016040528093929190818152602001838380828437600081840152601f19601f8201169050808301925050505050505081526020013373ffffffffffffffffffffffffffffffffffffffff16815260200188888080601f016020809104026020016040519081016040528093929190818152602001838380828437600081840152601f19601f82011690508083019250505050505050815260200186868080601f016020809104026020016040519081016040528093929190818152602001838380828437600081840152601f19601f8201169050808301925050505050505081526020016040518060200160405280600081525081526020016040518060400160405280600481526020017f6f70656e000000000000000000000000000000000000000000000000000000008152508152509050806000808473ffffffffffffffffffffffffffffffffffffffff1673ffffffffffffffffffffffffffffffffffffffff168152602001908152602001600020600082015181600001556020820151816001015560408201518160020190805190602001906109d99291906111df565b5060608201518160030190805190602001906109f69291906111df565b5060808201518160040160006101000a81548173ffffffffffffffffffffffffffffffffffffffff021916908373ffffffffffffffffffffffffffffffffffffffff16021790555060a0820151816005019080519060200190610a5a9291906111df565b5060c0820151816006019080519060200190610a779291906111df565b5060e0820151816007019080519060200190610a949291906111df565b50610100820151816008019080519060200190610ab29291906111df565b50905050336001600085815260200190815260200160002060006101000a81548173ffffffffffffffffffffffffffffffffffffffff021916908373ffffffffffffffffffffffffffffffffffffffff1602179055508173ffffffffffffffffffffffffffffffffffffffff167f58f6279d26a4574c67ef3a733e897c5f241843e348753e998bab35156d0757ac338989604051610b5293929190611a60565b60405180910390a250505050505050505050505050565b60606000610b7760026110d3565b905060008167ffffffffffffffff811115610b9557610b9461180d565b5b604051908082528060200260200182016040528015610bce57816020015b610bbb6110f7565b815260200190600190039081610bb35790505b50905060005b828110156110ca573373ffffffffffffffffffffffffffffffffffffffff16828281518110610c0657610c05611921565b5b60200260200101516080015173ffffffffffffffffffffffffffffffffffffffff16036110b7576000600182610c3c919061186b565b905060008060006001600085815260200190815260200160002060009054906101000a900473ffffffffffffffffffffffffffffffffffffffff1673ffffffffffffffffffffffffffffffffffffffff1673ffffffffffffffffffffffffffffffffffffffff168152602001908152602001600020604051806101200160405290816000820154815260200160018201548152602001600282018054610ce1906118f0565b80601f0160208091040260200160405190810160405280929190818152602001828054610d0d906118f0565b8015610d5a5780601f10610d2f57610100808354040283529160200191610d5a565b820191906000526020600020905b815481529060010190602001808311610d3d57829003601f168201915b50505050508152602001600382018054610d73906118f0565b80601f0160208091040260200160405190810160405280929190818152602001828054610d9f906118f0565b8015610dec5780601f10610dc157610100808354040283529160200191610dec565b820191906000526020600020905b815481529060010190602001808311610dcf57829003601f168201915b505050505081526020016004820160009054906101000a900473ffffffffffffffffffffffffffffffffffffffff1673ffffffffffffffffffffffffffffffffffffffff1673ffffffffffffffffffffffffffffffffffffffff168152602001600582018054610e5b906118f0565b80601f0160208091040260200160405190810160405280929190818152602001828054610e87906118f0565b8015610ed45780601f10610ea957610100808354040283529160200191610ed4565b820191906000526020600020905b815481529060010190602001808311610eb757829003601f168201915b50505050508152602001600682018054610eed906118f0565b80601f0160208091040260200160405190810160405280929190818152602001828054610f19906118f0565b8015610f665780601f10610f3b57610100808354040283529160200191610f66565b820191906000526020600020905b815481529060010190602001808311610f4957829003601f168201915b50505050508152602001600782018054610f7f906118f0565b80601f0160208091040260200160405190810160405280929190818152602001828054610fab906118f0565b8015610ff85780601f10610fcd57610100808354040283529160200191610ff8565b820191906000526020600020905b815481529060010190602001808311610fdb57829003601f168201915b50505050508152602001600882018054611011906118f0565b80601f016020809104026020016040519081016040528092919081815260200182805461103d906118f0565b801561108a5780601f1061105f5761010080835404028352916020019161108a565b820191906000526020600020905b81548152906001019060200180831161106d57829003601f168201915b5050505050815250509050808484815181106110a9576110a8611921565b5b602002602001018190525050505b80806110c290611950565b915050610bd4565b50809250505090565b600081600001549050919050565b6001816000016000828254019250508190555050565b60405180610120016040528060008152602001600081526020016060815260200160608152602001600073ffffffffffffffffffffffffffffffffffffffff168152602001606081526020016060815260200160608152602001606081525090565b828054611165906118f0565b90600052602060002090601f01602090048101928261118757600085556111ce565b82601f106111a057803560ff19168380011785556111ce565b828001600101855582156111ce579182015b828111156111cd5782358255916020019190600101906111b2565b5b5090506111db9190611265565b5090565b8280546111eb906118f0565b90600052602060002090601f01602090048101928261120d5760008555611254565b82601f1061122657805160ff1916838001178555611254565b82800160010185558215611254579182015b82811115611253578251825591602001919060010190611238565b5b5090506112619190611265565b5090565b5b8082111561127e576000816000905550600101611266565b5090565b600080fd5b600080fd5b600073ffffffffffffffffffffffffffffffffffffffff82169050919050565b60006112b78261128c565b9050919050565b6112c7816112ac565b81146112d257600080fd5b50565b6000813590506112e4816112be565b92915050565b600060208284031215611300576112ff611282565b5b600061130e848285016112d5565b91505092915050565b600081519050919050565b600082825260208201905092915050565b6000819050602082019050919050565b6000819050919050565b61135681611343565b82525050565b600081519050919050565b600082825260208201905092915050565b60005b8381101561139657808201518184015260208101905061137b565b838111156113a5576000848401525b50505050565b6000601f19601f8301169050919050565b60006113c78261135c565b6113d18185611367565b93506113e1818560208601611378565b6113ea816113ab565b840191505092915050565b60006114008261128c565b9050919050565b611410816113f5565b82525050565b60006101208301600083015161142f600086018261134d565b506020830151611442602086018261134d565b506040830151848203604086015261145a82826113bc565b9150506060830151848203606086015261147482826113bc565b91505060808301516114896080860182611407565b5060a083015184820360a08601526114a182826113bc565b91505060c083015184820360c08601526114bb82826113bc565b91505060e083015184820360e08601526114d582826113bc565b9150506101008301518482036101008601526114f182826113bc565b9150508091505092915050565b600061150a8383611416565b905092915050565b6000602082019050919050565b600061152a82611317565b6115348185611322565b93508360208202850161154685611333565b8060005b85811015611582578484038952815161156385826114fe565b945061156e83611512565b925060208a0199505060018101905061154a565b50829750879550505050505092915050565b600060208201905081810360008301526115ae818461151f565b905092915050565b600080fd5b600080fd5b600080fd5b60008083601f8401126115db576115da6115b6565b5b8235905067ffffffffffffffff8111156115f8576115f76115bb565b5b602083019150836001820283011115611614576116136115c0565b5b9250929050565b611624816113f5565b811461162f57600080fd5b50565b6000813590506116418161161b565b92915050565b6000806000604084860312156116605761165f611282565b5b600084013567ffffffffffffffff81111561167e5761167d611287565b5b61168a868287016115c5565b9350935050602061169d86828701611632565b9150509250925092565b6116b081611343565b81146116bb57600080fd5b50565b6000813590506116cd816116a7565b92915050565b60008060008060008060008060008060c08b8d0312156116f6576116f5611282565b5b60006117048d828e016116be565b9a505060206117158d828e016116be565b99505060408b013567ffffffffffffffff81111561173657611735611287565b5b6117428d828e016115c5565b985098505060608b013567ffffffffffffffff81111561176557611764611287565b5b6117718d828e016115c5565b965096505060808b013567ffffffffffffffff81111561179457611793611287565b5b6117a08d828e016115c5565b945094505060a08b013567ffffffffffffffff8111156117c3576117c2611287565b5b6117cf8d828e016115c5565b92509250509295989b9194979a5092959850565b6117ec81611343565b82525050565b600060208201905061180760008301846117e3565b92915050565b7f4e487b7100000000000000000000000000000000000000000000000000000000600052604160045260246000fd5b7f4e487b7100000000000000000000000000000000000000000000000000000000600052601160045260246000fd5b600061187682611343565b915061188183611343565b9250827fffffffffffffffffffffffffffffffffffffffffffffffffffffffffffffffff038211156118b6576118b561183c565b5b828201905092915050565b7f4e487b7100000000000000000000000000000000000000000000000000000000600052602260045260246000fd5b6000600282049050600182168061190857607f821691505b60208210810361191b5761191a6118c1565b5b50919050565b7f4e487b7100000000000000000000000000000000000000000000000000000000600052603260045260246000fd5b600061195b82611343565b91507fffffffffffffffffffffffffffffffffffffffffffffffffffffffffffffffff820361198d5761198c61183c565b5b600182019050919050565b600082825260208201905092915050565b7f53656e6465722061646472657373206d7573742062652076616c696400000000600082015250565b60006119df601c83611998565b91506119ea826119a9565b602082019050919050565b60006020820190508181036000830152611a0e816119d2565b9050919050565b611a1e816113f5565b82525050565b82818337600083830152505050565b6000611a3f8385611998565b9350611a4c838584611a24565b611a55836113ab565b840190509392505050565b6000604082019050611a756000830186611a15565b8181036020830152611a88818486611a33565b905094935050505056fea2646970667358221220092f1697996705fe6c718d30e38c5626bb212af2faee9e552835bea5b6ff515664736f6c634300080e0033",
  "immutableReferences": {},
  "source": "pragma solidity ^0.8.7;\r\n\r\nimport \"./ConvertLib.sol\";\r\nimport \"@openzeppelin/contracts/utils/Counters.sol\";\r\n\r\n// This is just a simple example of a coin-like contract.\r\n// It is not standards compatible and cannot be expected to talk to other\r\n// coin/token contracts. If you want to create a standards-compliant\r\n// token, see: https://github.com/ConsenSys/Tokens. Cheers!\r\n\r\ncontract Rides {\r\n\r\n\r\n    struct Ride {\r\n    uint cost;\r\n    uint timeActive;\r\n    string date;\r\n    string hour;\r\n    address driver;\r\n    string rider;\r\n    string destination;\r\n    string bids;\r\n    string status;\r\n    }\r\n\r\n    mapping(address => Ride) private rides;\r\n    mapping(uint=> address) private accounts;\r\n\r\n    using Counters for Counters.Counter;\r\n    Counters.Counter private ridesIds;\r\n    event rideCreated(address indexed canditateAddress, address driver, string rider);\r\n    event Selected(address indexed _driverAddress, address indexed _riderAddress, uint _totalPayed);\r\n\r\n\r\n        function payRide(address payable _receiver) public payable {\r\n        _receiver.transfer(msg.value);\r\n        //rides[rideId].status = \"closed\";\r\n        //rides[rideId].rider = rider;\r\n        emit Selected(_receiver, msg.sender, msg.value);\r\n    }\r\n\r\n    function registerRide(\r\n        uint cost,\r\n        uint timeActive,\r\n        string calldata date,\r\n        string calldata hour,\r\n        string calldata rider,\r\n        string calldata destination\r\n        ) external {\r\n    require(msg.sender != address(0), \"Sender address must be valid\"); \r\n    ridesIds.increment();\r\n    uint rideId = ridesIds.current();\r\n    address _address = address(msg.sender);\r\n    Ride memory newRide = Ride(cost, timeActive, date, hour, msg.sender, rider, destination, \"\" , \"open\");  \r\n    rides[_address] = newRide;  \r\n    accounts[rideId] = msg.sender;\r\n    emit rideCreated(_address, msg.sender, rider);\r\n    }\r\n\r\n    function fetchRides() external  view  returns ( Ride[] memory) {\r\n        uint itemCount = ridesIds.current();\r\n        Ride[] memory ridesArray = new Ride[](itemCount);\r\n            for (uint i = 0; i < itemCount; i++) {\r\n                uint currentId = i + 1;\r\n                Ride memory currentRide = rides[accounts[currentId]];\r\n                ridesArray[i] = currentRide;\r\n            }\r\n            return ridesArray;\r\n        }\r\n\r\n\r\n    function fetchRidesDriver()external view returns (Ride[] memory) {\r\n        uint itemCount = ridesIds.current();\r\n        Ride[] memory ridesArray = new Ride[](itemCount);\r\n            for (uint i = 0; i < itemCount; i++) {\r\n                if (ridesArray[i].driver == msg.sender){\r\n                uint currentId = i + 1;\r\n                Ride memory currentRide = rides[accounts[currentId]];\r\n                \r\n                    ridesArray[i] = currentRide;\r\n                }\r\n                \r\n            }\r\n            return ridesArray;        \r\n    }\r\n\r\n    function makeBid(string calldata bids , address rideId) public {\r\n        rides[rideId].bids = bids;\r\n\r\n    }\r\n}",
  "sourcePath": "C:\\Users\\oscar\\Desktop\\tec-ride\\contracts\\Rides.sol",
  "compiler": {
    "name": "solc",
    "version": "0.8.14+commit.80d49f37.Emscripten.clang"
  },
  "schemaVersion": "3.4.7",
  "updatedAt": "2022-06-03T01:23:27.819Z",
  "networkType": "ethereum",
  "devdoc": {
    "kind": "dev",
    "methods": {},
    "version": 1
  },
  "userdoc": {
    "kind": "user",
    "methods": {},
    "version": 1
  }
}