{
  "contractName": "Test",
  "abi": [
    {
      "inputs": [],
      "stateMutability": "nonpayable",
      "type": "constructor"
    },
    {
      "inputs": [
        {
          "internalType": "uint256",
          "name": "",
          "type": "uint256"
        }
      ],
      "name": "contacts",
      "outputs": [
        {
          "internalType": "uint256",
          "name": "id",
          "type": "uint256"
        },
        {
          "internalType": "string",
          "name": "name",
          "type": "string"
        },
        {
          "internalType": "string",
          "name": "phone",
          "type": "string"
        }
      ],
      "stateMutability": "view",
      "type": "function"
    },
    {
      "inputs": [],
      "name": "count",
      "outputs": [
        {
          "internalType": "uint256",
          "name": "",
          "type": "uint256"
        }
      ],
      "stateMutability": "view",
      "type": "function"
    },
    {
      "inputs": [],
      "name": "name",
      "outputs": [
        {
          "internalType": "string",
          "name": "",
          "type": "string"
        }
      ],
      "stateMutability": "view",
      "type": "function"
    },
    {
      "inputs": [
        {
          "internalType": "string",
          "name": "_name",
          "type": "string"
        },
        {
          "internalType": "string",
          "name": "_phone",
          "type": "string"
        }
      ],
      "name": "createContact",
      "outputs": [],
      "stateMutability": "nonpayable",
      "type": "function"
    }
  ],
  "bytecode": "0x60c0604052600560808190526437b9b1b0b960d91b60a09081526100269160009190610113565b50600060015534801561003857600080fd5b5061008e6040518060400160405280600c81526020016b5a616661722053616c65656d60a01b8152506040518060400160405280600981526020016831323331323331323360b81b81525061009360201b60201c565b61020d565b600180549060006100a3836101ac565b9091555050604080516060810182526001805480835260208084018781528486018790526000928352600282529490912083518155935180519394936100f0938501929190910190610113565b506040820151805161010c916002840191602090910190610113565b5050505050565b82805461011f906101d3565b90600052602060002090601f0160209004810192826101415760008555610187565b82601f1061015a57805160ff1916838001178555610187565b82800160010185558215610187579182015b8281111561018757825182559160200191906001019061016c565b50610193929150610197565b5090565b5b808211156101935760008155600101610198565b6000600182016101cc57634e487b7160e01b600052601160045260246000fd5b5060010190565b600181811c908216806101e757607f821691505b60208210810361020757634e487b7160e01b600052602260045260246000fd5b50919050565b6105e68061021c6000396000f3fe608060405234801561001057600080fd5b506004361061004c5760003560e01c806306661abd1461005157806306fdde031461006d5780633dce492014610082578063e0f478cb14610097575b600080fd5b61005a60015481565b6040519081526020015b60405180910390f35b6100756100b9565b60405161006491906103e0565b61009561009036600461049d565b610147565b005b6100aa6100a5366004610501565b6101c7565b6040516100649392919061051a565b600080546100c69061054f565b80601f01602080910402602001604051908101604052809291908181526020018280546100f29061054f565b801561013f5780601f106101145761010080835404028352916020019161013f565b820191906000526020600020905b81548152906001019060200180831161012257829003601f168201915b505050505081565b6001805490600061015783610589565b9091555050604080516060810182526001805480835260208084018781528486018790526000928352600282529490912083518155935180519394936101a49385019291909101906102fa565b50604082015180516101c09160028401916020909101906102fa565b5050505050565b600260205260009081526040902080546001820180549192916101e99061054f565b80601f01602080910402602001604051908101604052809291908181526020018280546102159061054f565b80156102625780601f1061023757610100808354040283529160200191610262565b820191906000526020600020905b81548152906001019060200180831161024557829003601f168201915b5050505050908060020180546102779061054f565b80601f01602080910402602001604051908101604052809291908181526020018280546102a39061054f565b80156102f05780601f106102c5576101008083540402835291602001916102f0565b820191906000526020600020905b8154815290600101906020018083116102d357829003601f168201915b5050505050905083565b8280546103069061054f565b90600052602060002090601f016020900481019282610328576000855561036e565b82601f1061034157805160ff191683800117855561036e565b8280016001018555821561036e579182015b8281111561036e578251825591602001919060010190610353565b5061037a92915061037e565b5090565b5b8082111561037a576000815560010161037f565b6000815180845260005b818110156103b95760208185018101518683018201520161039d565b818111156103cb576000602083870101525b50601f01601f19169290920160200192915050565b6020815260006103f36020830184610393565b9392505050565b634e487b7160e01b600052604160045260246000fd5b600082601f83011261042157600080fd5b813567ffffffffffffffff8082111561043c5761043c6103fa565b604051601f8301601f19908116603f01168101908282118183101715610464576104646103fa565b8160405283815286602085880101111561047d57600080fd5b836020870160208301376000602085830101528094505050505092915050565b600080604083850312156104b057600080fd5b823567ffffffffffffffff808211156104c857600080fd5b6104d486838701610410565b935060208501359150808211156104ea57600080fd5b506104f785828601610410565b9150509250929050565b60006020828403121561051357600080fd5b5035919050565b8381526060602082015260006105336060830185610393565b82810360408401526105458185610393565b9695505050505050565b600181811c9082168061056357607f821691505b60208210810361058357634e487b7160e01b600052602260045260246000fd5b50919050565b6000600182016105a957634e487b7160e01b600052601160045260246000fd5b506001019056fea2646970667358221220bb21f7b0992cc4589c9550ae7bc92381bfbfebbd9eb01b601c93ccc17641d86264736f6c634300080d0033",
  "immutableReferences": {},
  "source": "pragma solidity ^0.8.13;\r\n\r\ncontract Test {\r\n    string public name = \"oscar\";\r\n    uint public count = 0; // state variable\r\n\r\n      struct Contact {\r\n    uint id;\r\n    string name;\r\n    string phone;\r\n  }\r\n\r\n    constructor() public {\r\n    createContact('Zafar Saleem', '123123123');\r\n  }\r\n  \r\n  mapping(uint => Contact) public contacts;\r\n  \r\n  function createContact(string memory _name, string memory _phone) public {\r\n    count++;\r\n    contacts[count] = Contact(count, _name, _phone);\r\n  }\r\n\r\n\r\n}",
  "sourcePath": "C:\\Users\\oscar\\Desktop\\tec-ride\\contracts\\Test.sol",
  "compiler": {
    "name": "solc",
    "version": "0.8.13+commit.abaa5c0e.Emscripten.clang"
  },
  "schemaVersion": "3.4.7",
  "updatedAt": "2022-05-15T04:01:32.018Z",
  "devdoc": {
    "kind": "dev",
    "methods": {},
    "version": 1
  },
  "userdoc": {
    "kind": "user",
    "methods": {},
    "version": 1
  }
}